:0400000051EF00F0CC
:10000800FACF12F0FBCF13F0E9CF14F0EACF15F0D6
:10001800E1CF16F0E2CF17F0D9CF18F0DACF19F008
:10002800F3CF1AF0F4CF1BF0F6CF1CF0F7CF1DF08A
:10003800F8CF1EF0F5CF1FF01FC0F5FF1EC0F8FF68
:100048001DC0F7FF1CC0F6FF1BC0F4FF1AC0F3FF6A
:1000580019C0DAFF18C0D9FF17C0E2FF16C0E1FFC8
:1000680015C0EAFF14C0E9FF13C0FBFF12C0FAFF76
:100078001100FACF61F0FBCF62F0E9CF63F09AEF9D
:1000880004F0E9FF05C0FBFF04C0FAFF03C0E0FF6E
:1000980002C0E8FF01C0D8FF10006DEF05F01EECAC
:1000A80006F0A4EC05F0E5EC05F08B908B9E010EB4
:1000B8000001706F00016F692DEC05F0010E000161
:1000C800706F00016F690DEC05F0CD9089889382FF
:1000D800F19AF08CF086F28EF28E8B988B9A8B9632
:1000E8008B9C000E0001796F090E4DEC05F00001A4
:1000F8006FC093F0000170C094F0E80E0001935DAA
:10010800030E00019459D8B0EFD7710E0001935D2A
:10011800030E00019459D8A00AD0C20E0001935DC5
:10012800030E00019459D8B002D0000E23D0AC0EB3
:100138000001935D020E00019459D8A00AD0FD0E6B
:100148000001935D020E00019459D8B002D0020E4E
:1001580011D0EC0E0001935D010E00019459D8A056
:100168000BD03D0E0001935D020E00019459D8B0EA
:1001780003D0010E00018E6F000E00017E6F000E8D
:1001880000017D6F330E00017D5D000E00017E5978
:10019800D8B013D0D00E0001786FCA0EE82EFED763
:1001A800782FFCD7010E00017D2500017D6F000E20
:1001B80000017E2100017E6FE5D7020E0001706FFD
:1001C800020E00016F6F2DEC05F0020E0001706F3A
:1001D800020E00016F6F0DEC05F08B80020E00011E
:1001E800706FBC0E00016F6F2DEC05F0020E000160
:1001F800706FC80E00016F6F0DEC05F04CEC03F04A
:10020800EDEC04F099EC02F000018D5100018E191B
:10021800D8B45AD08B80020E0001706FBC0E00015A
:100228006F6F2DEC05F0020E0001706FC80E000113
:100238006F6F0DEC05F0000E00017A6F0AD0D00E3A
:100248000001786FCA0EE82EFED7782FFCD7000180
:100258007A2B640E00017A65F2D74CEC03F0EDECD2
:1002680004F099EC02F00001792B00018D51000196
:100278008E19D8B429D08B80020E0001706FBC0E85
:1002880000016F6F2DEC05F0020E0001706FC80EB3
:1002980000016F6F0DEC05F0000E00017B6F0AD0B6
:1002A800D00E0001786FCA0EE82EFED7782FFCD743
:1002B80000017B2B640E00017B65F2D74CEC03F048
:1002C800EDEC04F00001792B020E0001706FBC0EFA
:1002D80000016F6F2DEC05F0010E0001706F2C0E00
:1002E80000016F6F0DEC05F08B80000E0CD0D00E66
:1002F8000001786FCA0EE82EFED7782FFCD72BECBA
:1003080006F0000181290001816FBE0E00018165A0
:10031800EED7020E0001706F950E00016F6F2DEC85
:1003280005F0020E0001706F9E0E00016F6F0DEC5C
:1003380005F08B80000E0CD0D00E0001786FCA0E2D
:10034800E82EFED7782FFCD72BEC06F00001822987
:100358000001826FC80E00018265EED7EDEC04F053
:1003680040EC04F0010E0001706F690E00016F6F20
:100378002DEC05F0010E0001706F740E00016F6F17
:100388000DEC05F08B80000E0CD0D00E0001786FBC
:10039800CA0EE82EFED7782FFCD72BEC06F000010A
:1003A80083290001836F960E00018365EED7EDEC7B
:1003B80004F0020E0001706FBC0E00016F6F2DEC8F
:1003C80005F0010E0001706F2C0E00016F6F0DEC2F
:1003D80005F08B800D0E4DEC05F02D0E00016F5DC4
:1003E800010E00017059D8A0F5D7020E0001706FF8
:1003F800BC0E00016F6F2DEC05F0020E0001706F4E
:10040800C80E00016F6F0DEC05F08B804CEC03F00B
:1004180027D0020E0001706FBC0E00016F6F2DEC2B
:1004280005F0020E0001706FC80E00016F6F0DEC31
:1004380005F08B80000E00017C6F0AD0D00E000101
:10044800786FCA0EE82EFED7782FFCD700017C2BD8
:10045800230E00017C65F2D74CEC03F0000179070C
:1004680000017967D6D7EDEC04F0E3EC03F0010E58
:100478000001706F2C0E00016F6F2DEC05F0010E5E
:100488000001706F2C0E00016F6F0DEC05F08B8072
:10049800000E0CD0D00E0001786FCA0EE82EFED7E1
:1004A800782FFCD72BEC06F0000184290001846F1B
:1004B800C80E00018465EED7EDEC04F0020E0001D1
:1004C800706FBC0E00016F6F2DEC05F0010E00017E
:1004D800706F2C0E00016F6F0DEC05F08B80000E15
:1004E8000001806F000E00017F6FC30E00017F5D69
:1004F800010E00018059D8B015D0D00E0001786FD8
:10050800CA0EE82EFED7782FFCD72BEC06F0010E8A
:1005180000017F2500017F6F000E0001802100018E
:10052800806FE3D7EDEC04F0DFD589908982899854
:1005380089948996000E0001756F12D0D00E0001C3
:10054800746FCA0EE82EFED7742FFCD7D00E0001A8
:10055800746FCA0EE82EFED7742FFCD70001752BD6
:10056800180E00017565EAD7040E4DEC05F0000180
:100578006FC089F0000170C08AF089948986000EE6
:100588000001766F12D0D00E0001746FCA0EE82EEB
:10059800FED7742FFCD7D00E0001746FCA0EE82E58
:1005A800FED7742FFCD70001762B180E0001766554
:1005B800EAD7040E4DEC05F000016FC085F000018C
:1005C80070C086F089848986000E0001776F12D08A
:1005D800D00E0001746FCA0EE82EFED7742FFCD718
:1005E800D00E0001746FCA0EE82EFED7742FFCD708
:1005F8000001772B180E00017765EAD7040E4DEC41
:1006080005F000016FC08BF0000170C08CF0898884
:1006180000018A51800A0001746F000185510001B0
:10062800895D00018651800A00017459D8A018D04C
:1006380000018A51800A0001746F00018B5100018A
:10064800895D00018C51800A00017459D8A004D03A
:10065800000E00018D6F1200020E00018D6F120056
:1006680000018651800A0001746F00018B5100015E
:10067800855D00018C51800A00017459D8A004D00E
:10068800010E00018D6F1200020E00018D6F120025
:10069800020E0001706FBC0E00016F6F2DEC05F0AB
:1006A800020E0001706FC80E00016F6F0DEC05F0AF
:1006B8008B8079D02BEC06F00D0E4DEC05F0000187
:1006C8006FC087F0000170C088F0250E0001875DBB
:1006D800010E00018859D8A00BD0020E0001906FBE
:1006E800FA0E00018F6F020E0001926F8F0E2FD04D
:1006F800FC0E0001875D000E00018859D8B015D0A6
:100708000B0E0001875D000E00018859D8A00DD09E
:10071800020E0001926FEE0E0001916F020E0001B1
:10072800906F9B0E00018F6F14D00B0E0001875D38
:10073800000E00018859D8A00CD0020E0001906F5D
:10074800C80E00018F6F020E0001926FBC0E0001EF
:10075800916F91C06FF092C070F02DEC05F08FC0D2
:100768006FF090C070F00DEC05F0000E0001756F91
:1007780016D0150E0001746FC60EE82EFED7742F22
:10078800FCD700D00D0E4DEC05F0EE0E00016F5DAC
:10079800020E00017059D8B006D00001752B070E63
:1007A80000017565E6D70D0E4DEC05F0EE0E000163
:1007B8006F5D020E00017059D8B012007BD7000E91
:1007C8000001706F53D08B8E8B888B8A8B968B9C95
:1007D800D00E00016F6FCA0EE82EFED76F2FFCD720
:1007E8002A0E00016F6F8E0EE82EFED76F2FFCD7F2
:1007F8008B888B9A8B968B8CD00E00016F6FCA0EEC
:10080800E82EFED76F2FFCD72A0E00016F6F8E0ED1
:10081800E82EFED76F2FFCD78B988B9A8B868B8C04
:10082800D00E00016F6FCA0EE82EFED76F2FFCD7CF
:100838002A0E00016F6F8E0EE82EFED76F2FFCD7A1
:100848008B988B8A8B868B9CD00E00016F6FCA0E9B
:10085800E82EFED76F2FFCD72A0E00016F6F8E0E81
:10086800E82EFED76F2FFCD70001702B2A0E00014F
:100878007065A9D78B9E1200000E3B6E52D08B8EEE
:100888008B988B8A8B868B9CD00E00016F6FCA0E5B
:10089800E82EFED76F2FFCD72A0E00016F6F8E0E41
:1008A800E82EFED76F2FFCD78B988B9A8B868B8C74
:1008B800D00E00016F6FCA0EE82EFED76F2FFCD73F
:1008C8002A0E00016F6F8E0EE82EFED76F2FFCD711
:1008D8008B888B9A8B968B8CD00E00016F6FCA0E0B
:1008E800E82EFED76F2FFCD72A0E00016F6F8E0EF1
:1008F800E82EFED76F2FFCD78B888B8A8B968B9C24
:10090800D00E00016F6FCA0EE82EFED76F2FFCD7EE
:100918002A0E00016F6F8E0EE82EFED76F2FFCD7C0
:100928003B2A2A0E3B64ABD78B9E1200EACF64F0B9
:10093800E1CF65F0E2CF66F0D9CF67F0DACF68F0A3
:10094800F3CF69F0F4CF6AF0F6CF6BF0F7CF6CF025
:10095800F8CF6DF0F5CF6EF0F0B6F0A01DD0030E15
:10096800216E200E206E15EC06F0CD808B90000EC7
:10097800376E000E366E640E365C000E3758D8B0EF
:100988000BD0D00E0001606FCA0EE82EFED7602F84
:10099800FCD7364A372AEFD76EC0F5FF6DC0F8FF8F
:1009A8006CC0F7FF6BC0F6FF6AC0F4FF69C0F3FFC5
:1009B80068C0DAFF67C0D9FF66C0E2FF65C0E1FF23
:1009C80064C0EAFF63C0E9FF62C0FBFF61C0FAFFD1
:1009D8001100010E0001706F00016F692DEC05F028
:1009E800010E0001706F00016F690DEC05F0D00E6B
:1009F8000001736FCA0EE82EFED7732FFCD7D00EF6
:100A08000001736FCA0EE82EFED7732FFCD78B90A8
:100A1800120000016FC071F0000170C072F0000197
:100A2800D890723371330001D8907233713300015A
:100A38007151676E6FC071F0030E000171170001EC
:100A4800713BF00E71176650CF0B00017111666E85
:100A5800120000016FC071F0000170C072F0000157
:100A6800D890723371330001D8907233713300011A
:100A78007151BE6E6FC071F0030E00017117000155
:100A8800713BF00E7117BD50CF0B00017111BD6E97
:100A980012000001736F73C071F000017147714754
:100AA800C25000017119830B7119C26EC280C282D3
:100AB800C2B2FED7C4500001726F716BC3500001FF
:100AC800712500016F6F000E000172210001706F27
:100AD800120000EE85F00A0EEE6AE806FDE100EE6F
:100AE80024F0190EEE6AE806FDE14A0EF66E0C0EC9
:100AF800F76E000EF86E00EE8FF010EE04F00900AD
:100B0800F5CFEEFFE550E150FAE1000153EF00F0B8
:100B1800000E896E92682F0E0F01386F000E8A6ED4
:100B2800FE0E936E3E0E0F01396F000E616E000EC1
:100B38008B6EF90E946EF80E0F013A6FF18E12005B
:100B48001EEC06F08CEC05F001EC06F00CEC06F05F
:100B5800D5EC05F0C5EC05F0B5EC05F0F4EC05F0C6
:100B68001200000ECD6E000ECC6E000ECF6E000E81
:100B7800CE6ECECF3DF0CFCF3EF09E9029EC06F062
:100B880012003C0E666E000E646E800E656E010EDD
:100B9800636E7F0E676E000E686EE70E0F014917D1
:100BA80012003C0EBD6E000EB66E800EB76E010EC2
:100BB800B96E7F0EBE6E000EBF6EFC0E0F01491798
:100BC800120092909292929492969298928A93900E
:100BD8009382938493869388938A000E946E12006E
:100BE800020E0F01576F000E0F01586F000E0F0114
:100BF800596FFC0E0F0148171200010EC26E800ECD
:100C0800C16E8E0EC06E000EC36E000EC46E120052
:100C1800020EBA6EBB68000EBC6E9E9227EC06F000
:100C2800120020C022F021C023F022C058FF23C0A8
:100C380059FF1200700ED36E040ED26E400E9B6EDA
:100C48001200C802BC02BA841200CD801200120041
:020000040020DA
:08000000FFFFFFFFFFFFFFFF00
:020000040030CA
:0E000000FF081F3CFFBF81FF03C003E0034069
:00000001FF
