:0400000053EF00F0CA
:100008003C82FACF12F0FBCF13F0E9CF14F0EACF1D
:1000180015F0E1CF16F0E2CF17F0D9CF18F0DACF0C
:1000280019F0F3CF1AF0F4CF1BF0F6CF1CF0F7CF8E
:100038001DF0F8CF1EF0F5CF1FF01FC0F5FF1EC052
:10004800F8FF1DC0F7FF1CC0F6FF1BC0F4FF1AC065
:10005800F3FF19C0DAFF18C0D9FF17C0E2FF16C0B6
:10006800E1FF15C0EAFF14C0E9FF13C0FBFF12C08F
:10007800FAFF3C9211003C82FACF61F0FBCF62F0AC
:10008800B8EF03F0E9FF05C0FBFF04C0FAFF03C0A7
:10009800E0FF02C0E8FF01C0D8FF3C901000B8EFB5
:1000A80004F0D1EC05F057EC05F098EC05F08B90D6
:1000B8008B9E010E0001706F6F6927EC05F0010E31
:1000C8000001706F6F690FEC05F0CD9089889382FD
:1000D800F19AF08CF086F28EF28E8B988B9A8B9632
:1000E8008B9C000E0001756F090EF5EC04F06FC0D3
:1000F8008FF070C090F0E80E00018F5D030E0001D4
:100108009059D8B0F1D7710E00018F5D030E000130
:100118009059D8A00AD0C20E00018F5D030E0001CD
:100128009059D8B002D0000E23D0AC0E00018F5DDC
:10013800020E00019059D8A00AD0FD0E00018F5D73
:10014800020E00019059D8B002D0020E11D0EC0E68
:1001580000018F5D010E00019059D8A00BD03D0E13
:1001680000018F5D020E00019059D8B003D0010E36
:1001780000018A6F000E00017A6F000E796F00018E
:100188007A5118E1330E0001795DD8B013D0D00E42
:100198000001746FCA0EE82EFED7742FFCD7010E2B
:1001A800000179250001796F000E00017A21000114
:1001B8007A6FE5D7020E0001706F020E6F6F27ECA1
:1001C80005F0020E0001706F020E6F6F0FEC05F064
:1001D8008B80020E0001706FBC0E6F6F27EC05F06C
:1001E800020E0001706FC80E6F6F0FEC05F02AEC5D
:1001F80003F0D9EC04F086EC02F000018A5100010A
:100208008919D8B458D08B80020E0001706FBC0ECB
:100218006F6F27EC05F0020E0001706FC80E6F6F4C
:100228000FEC05F0000E0001766F640E0001766594
:1002380001D00BD0D00E0001746FCA0EE82EFED785
:10024800742FFCD70001762BF0D72AEC03F0D9ECF9
:1002580004F086EC02F00001752B00018A510001C0
:100268008919D8B428D08B80020E0001706FBC0E9B
:100278006F6F27EC05F0020E0001706FC80E6F6FEC
:100288000FEC05F0000E0001776F640E0001776532
:1002980001D00BD0D00E0001746FCA0EE82EFED725
:1002A800742FFCD70001772BF0D72AEC03F0D9EC98
:1002B80004F00001752B020E0001706FBC0E6F6F09
:1002C80027EC05F0010E0001706F2C0E6F6F0FEC1C
:1002D80005F08B80000E00017D6FBE0E00017D656C
:1002E80001D00DD0D00E0001746FCA0EE82EFED7D3
:1002F800742FFCD7DEEC05F000017D29ECD7020E47
:100308000001706F950E6F6F27EC05F0020E00016B
:10031800706F9E0E6F6F0FEC05F08B80000E000162
:100328007E6FC80E00017E6501D00DD0D00E000191
:10033800746FCA0EE82EFED7742FFCD7DEEC05F0DA
:1003480000017E29ECD7D9EC04F00EEC04F0010E84
:100358000001706F690E6F6F27EC05F0010E000148
:10036800706F740E6F6F0FEC05F08B80000E00013C
:100378007F6F960E00017F6501D00DD0D00E000171
:10038800746FCA0EE82EFED7742FFCD7DEEC05F08A
:1003980000017F29ECD7D9EC04F0020E0001706F40
:1003A800BC0E6F6F27EC05F0010E0001706F2C0E6C
:1003B8006F6F0FEC05F08B800D0EF5EC04F02D0E31
:1003C80000016F5D010E00017059D8A0F5D7020E2B
:1003D8000001706FBC0E6F6F27EC05F0020E000174
:1003E800706FC80E6F6F0FEC05F08B802AEC03F06E
:1003F80026D0020E0001706FBC0E6F6F27EC05F05F
:10040800020E0001706FC80E6F6F0FEC05F08B8045
:10041800000E0001786F230E0001786501D00BD023
:10042800D00E0001746FCA0EE82EFED7742FFCD7C9
:100438000001782BF0D72AEC03F0000175070001C2
:1004480075510001D8A4D5D7D9EC04F063EC04F0B9
:10045800010E0001706F2C0E6F6F27EC05F0010E76
:100468000001706F2C0E6F6F0FEC05F08B80000E83
:100478000001806FC80E0001806501D00DD0D00E3C
:100488000001746FCA0EE82EFED7742FFCD7DEEC7D
:1004980005F000018029ECD7D9EC04F0020E000128
:1004A800706FBC0E6F6F27EC05F0010E0001706FC6
:1004B8002C0E6F6F0FEC05F08B80000E00017C6F27
:1004C800000E7B6F910E00017B5D010E00017C59CF
:1004D800D8B015D0D00E0001746FCA0EE82EFED722
:1004E800742FFCD7DEEC05F0010E00017B2500011E
:1004F8007B6F000E00017C2100017C6FE3D7D9ECF3
:1005080004F0F2D589908982899889948996000E99
:100518000001716F180E0001716501D011D0D00E65
:10052800276ECA0EE82EFED7272EFCD7D00E276ED0
:10053800CA0EE82EFED7272EFCD70001712BEAD76A
:10054800040EF5EC04F06FC085F070C086F0899455
:100558008986000E0001726F180E0001726501D0C5
:1005680011D0D00E276ECA0EE82EFED7272EFCD744
:10057800D00E276ECA0EE82EFED7272EFCD7000114
:10058800722BEAD7040EF5EC04F06FC081F070C04E
:1005980082F089848986000E0001736F180E0001AD
:1005A800736501D011D0D00E276ECA0EE82EFED783
:1005B800272EFCD7D00E276ECA0EE82EFED7272E80
:1005C800FCD70001732BEAD7040EF5EC04F06FC0DA
:1005D80087F070C088F08988000181510001855D2D
:1005E80000018651800A276E00018251800A27582F
:1005F800D8A016D0000187510001855D0001865101
:10060800800A276E00018851800A2758D8A004D094
:10061800000E0001896F1200020E0001896F12009E
:10062800000187510001815D00018251800A276E17
:1006380000018851800A2758D8A004D0010E000173
:10064800896F1200020E0001896F1200020E00016C
:10065800706FBC0E6F6F27EC05F0020E0001706F13
:10066800C80E6F6F0FEC05F08B8072D0DEEC05F0D2
:100678000D0EF5EC04F06FC083F070C084F0250E09
:100688000001835D010E00018459D8A00AD0020E32
:1006980000018C6FFA0E8B6F020E00018E6F8F0EA9
:1006A8002CD00001845118E1FC0E0001835DD8B004
:1006B80013D00001845105E10B0E0001835DD8A021
:1006C8000BD0020E00018E6FEE0E8D6F020E000130
:1006D8008C6F9B0E8B6F12D00001845105E10B0EBD
:1006E8000001835DD8A00AD0020E00018C6FC80EED
:1006F8008B6F020E00018E6FBC0E8D6F8DC06FF078
:100708008EC070F027EC05F08BC06FF08CC070F0D5
:100718000FEC05F0000E0001716F070E0001716506
:1007280001D016D0150E276EC60EE82EFED7272E3E
:10073800FCD700D00D0EF5EC04F0EE0E00016F5D55
:10074800020E00017059D8B003D00001712BE5D713
:100758000D0EF5EC04F0EE0E00016F5D020E0001C7
:100768007059D8B0120082D7E9CF63F0EACF64F0AD
:10077800E1CF65F0E2CF66F0D9CF67F0DACF68F065
:10078800F3CF69F0F4CF6AF0F6CF6BF0F7CF6CF0E7
:10079800F8CF6DF0F5CF6EF0F0B6F0A01DD0030ED7
:1007A800216E200E206EC8EC05F0CD808B90000ED7
:1007B800356E000E346E35500FE1640E345CD8B0DF
:1007C8000BD0D00E0001606FCA0EE82EFED7602F46
:1007D800FCD7344A352AEFD76EC0F5FF6DC0F8FF55
:1007E8006CC0F7FF6BC0F6FF6AC0F4FF69C0F3FF87
:1007F80068C0DAFF67C0D9FF66C0E2FF65C0E1FFE5
:1008080064C0EAFF63C0E9FF62C0FBFF61C0FAFF92
:100818003C921100000E256E000E256E2A0E2564EE
:1008280001D04BD08B8E8B988B8A8B868B9CD00E6D
:10083800246ECA0EE82EFED7242EFCD72A0E246E6C
:100848008E0EE82EFED7242EFCD78B988B9A8B869B
:100858008B8CD00E246ECA0EE82EFED7242EFCD721
:100868002A0E246E8E0EE82EFED7242EFCD78B88F7
:100878008B9A8B968B8CD00E246ECA0EE82EFED7E0
:10088800242EFCD72A0E246E8E0EE82EFED7242E98
:10089800FCD78B888B8A8B968B9CD00E246ECA0EC5
:1008A800E82EFED7242EFCD72A0E246E8E0EE82EB4
:1008B800FED7242EFCD7252AB1D78B9E1200000E16
:1008C800256E000E266E2A0E266401D04BD08B8E24
:1008D8008B888B8A8B968B9CD00E246ECA0EE82E42
:1008E800FED7242EFCD72A0E246E8E0EE82EFED7B5
:1008F800242EFCD78B888B9A8B968B8CD00E246EEB
:10090800CA0EE82EFED7242EFCD72A0E246E8E0E91
:10091800E82EFED7242EFCD78B988B9A8B868B8C4F
:10092800D00E246ECA0EE82EFED7242EFCD72A0E2F
:10093800246E8E0EE82EFED7242EFCD78B988B8A39
:100948008B868B9CD00E246ECA0EE82EFED7242EE2
:10095800FCD72A0E246E8E0EE82EFED7242EFCD746
:10096800262AB1D78B9E120000EE81F00A0EEE6A9D
:10097800E806FDE100EE28F0120EEE6AE806FDE159
:10098800B00EF66E0B0EF76E000EF86E00EE8BF0E2
:1009980010EE04F00900F5CFEEFFE550E150FAE162
:1009A8003C903C92000155EF00F0010E0001706F81
:1009B8006F6927EC05F0010E0001706F6F690FEC8D
:1009C80005F0D00E266ECA0EE82EFED7262EFCD7CE
:1009D800D00E266ECA0EE82EFED7262EFCD78B9098
:1009E8001200266E26C024F024462446C25024183D
:1009F800830B2418C26EC280C282C2B2FED7C45012
:100A0800256E246AC350242400016F6F000E252030
:100A18000001706F12006FC024F070C025F0D890EC
:100A280025322432D890253224322450676E6FC084
:100A380024F0030E2416243AF00E24166650CF0B29
:100A48002410666E12006FC024F070C025F0D89094
:100A580025322432D890253224322450BE6E6FC0FD
:100A680024F0030E2416243AF00E2416BD50CF0BA2
:100A78002410BD6E1200000E896E92682F0E0F01B1
:100A8800386F000E8A6EFE0E936E3E0E0F01396FA0
:100A9800000E616E000E8B6EF90E946EF80E0F014B
:100AA8003A6FF18E1200D1EC05F03FEC05F0B4EC92
:100AB80005F0BFEC05F088EC05F078EC05F068EC83
:100AC80005F0A7EC05F01200000ECD6E000ECC6EFE
:100AD800000ECF6E000ECE6ECECF3AF0CFCF3BF0E9
:100AE8009E90DCEC05F012003C0E666E000E646E03
:100AF800800E656E010E636E7F0E676E000E686E67
:100B0800E70E0F01491712003C0EBD6E000EB66EBF
:100B1800800EB76E010EB96E7F0EBE6E000EBF6EF0
:100B2800FC0E0F014917120092909292929492969D
:100B38009298928A93909382938493869388938AC7
:100B4800000E946E1200020E0F01576F000E0F0177
:100B5800586F000E0F01596FFC0E0F014817120055
:100B6800010EC26E800EC16E8E0EC06E000EC36E78
:100B7800000EC46E1200020EBA6EBB68000EBC6E88
:100B88009E92DAEC05F0120020C022F021C023F07A
:100B980022C058FF23C059FF1200700ED36E040EF6
:100BA800D26E400E9B6E1200C802BC02BA841200BC
:060BB800CD8012001200C6
:020000040020DA
:08000000FFFFFFFFFFFFFFFF00
:020000040030CA
:0E000000FF081F3CFFBF81FF03C003E0034069
:00000001FF
