:0400000053EF00F0CA
:100008003D82FACF12F0FBCF13F0E9CF14F0EACF1C
:1000180015F0E1CF16F0E2CF17F0D9CF18F0DACF0C
:1000280019F0F3CF1AF0F4CF1BF0F6CF1CF0F7CF8E
:100038001DF0F8CF1EF0F5CF1FF01FC0F5FF1EC052
:10004800F8FF1DC0F7FF1CC0F6FF1BC0F4FF1AC065
:10005800F3FF19C0DAFF18C0D9FF17C0E2FF16C0B6
:10006800E1FF15C0EAFF14C0E9FF13C0FBFF12C08F
:10007800FAFF3D9211003D82FACF25F0FBCF26F022
:1000880087EF04F0E9FF05C0FBFF04C0FAFF03C0D7
:10009800E0FF02C0E8FF01C0D8FF3D901000DCEF90
:1000A80004F009EC06F08FEC05F0D0EC05F08B902D
:1000B8008B9E010E0001616F606959EC05F0010E1D
:1000C8000001616F60693BEC05F0CD9089889382EF
:1000D800F19AF08CF086F28EF28E8B988B9A8B9632
:1000E8008B9C000E00016A6F090EFDEC04F060C0E5
:1000F80084F061C085F0E80E0001845D030E000104
:100108008559D8B0F1D7710E0001845D030E000146
:100118008559D8A00AD0C20E0001845D030E0001E3
:100128008559D8B002D0000E23D0AC0E0001845DF2
:10013800020E00018559D8A00AD0FD0E0001845D89
:10014800020E00018559D8B002D0020E11D0EC0E73
:100158000001845D010E00018559D8A00BD03D0E29
:100168000001845D020E00018559D8B003D0010E4C
:1001780000017F6F000E00016F6F000E6E6F0001AF
:100188006F5118E1330E00016E5DD8B013D0D00E58
:100198000001696FCA0EE82EFED7692FFCD7010E41
:1001A80000016E2500016E6F000E00016F21000135
:1001B8006F6FE5D7020E0001616F020E606F59EC98
:1001C80005F0020E0001616F020E606F3BEC05F056
:1001D8008B80020E0001616FBC0E606F59EC05F058
:1001E800020E0001616FC80E606F3BEC05F036EC43
:1001F80003F01DEC05F086EC02F000017F510001D0
:100208007E19D8B458D08B80020E0001616FBC0EE5
:10021800606F59EC05F0020E0001616FC80E606F47
:100228003BEC05F0000E00016B6F640E00016B657E
:1002380001D00BD0D00E0001696FCA0EE82EFED790
:10024800692FFCD700016B2BF0D736EC03F01DECBF
:1002580005F086EC02F000016A2B00017F510001D5
:100268007E19D8B428D08B80020E0001616FBC0EB5
:10027800606F59EC05F0020E0001616FC80E606FE7
:100288003BEC05F0000E00016C6F640E00016C651C
:1002980001D00BD0D00E0001696FCA0EE82EFED730
:1002A800692FFCD700016C2BF0D736EC03F01DEC5E
:1002B80005F000016A2B020E0001616FBC0E606F31
:1002C80059EC05F0010E0001616F2C0E606F3BECDC
:1002D80005F08B80000E0001726FBE0E0001726582
:1002E80001D00DD0D00E0001696FCA0EE82EFED7DE
:1002F800692FFCD716EC06F000017229ECD7020E24
:100308000001616F950E606F59EC05F0020E000157
:10031800616F9E0E606F3BEC05F08B80000E000154
:10032800736FC80E0001736501D00DD0D00E0001A7
:10033800696FCA0EE82EFED7692FFCD716EC06F0B7
:1003480000017329ECD71DEC05F0C5EC03F0010E94
:100358000001616F690E606F59EC05F0010E000134
:10036800616F740E606F3BEC05F08B80000E00012E
:10037800746F960E0001746501D00DD0D00E000187
:10038800696FCA0EE82EFED7692FFCD716EC06F067
:1003980000017429ECD71DEC05F0020E0001616F15
:1003A800BC0E606F59EC05F0010E0001616F2C0E58
:1003B800606F3BEC05F08B800D0EFDEC04F02D0E0C
:1003C8000001605D010E00016159D8A0F5D7020E49
:1003D8000001616FBC0E606F59EC05F0020E000160
:1003E800616FC80E606F3BEC05F08B8036EC03F054
:1003F80026D0020E0001616FBC0E606F59EC05F04B
:10040800020E0001616FC80E606F3BEC05F08B8037
:10041800000E00016D6F230E00016D6501D00BD039
:10042800D00E0001696FCA0EE82EFED7692FFCD7DF
:1004380000016D2BF0D736EC03F000016A070001CC
:100448006A510001D8A4D5D71DEC05F026EC04F0BC
:10045800010E0001616F2C0E606F59EC05F0010E62
:100468000001616F2C0E606F3BEC05F08B80000E75
:100478000001756FC80E0001756501D00DD0D00E52
:100488000001696FCA0EE82EFED7692FFCD716EC5B
:1004980006F000017529ECD71DEC05F0020E0001ED
:1004A800616FBC0E606F59EC05F0010E0001616FC1
:1004B8002C0E606F3BEC05F08B80000E0001716F15
:1004C800000E706F910E0001705D010E00017159F0
:1004D800D8B015D0D00E0001696FCA0EE82EFED72D
:1004E800692FFCD716EC06F0010E000170250001FB
:1004F800706F000E000171210001716FE3D71DECD0
:1005080005F0F2D589908982899889948996000E98
:100518000001666F180E0001666501D013D0D00E79
:100528000001656FCA0EE82EFED7652FFCD7D00EE6
:100538000001656FCA0EE82EFED7652FFCD70001B3
:10054800662BE8D7040EFDEC04F060C07AF061C0B9
:100558007BF089948986000E0001676F180E0001F0
:10056800676501D013D0D00E0001656FCA0EE82E62
:10057800FED7652FFCD7D00E0001656FCA0EE82E96
:10058800FED7652FFCD70001672BE8D7040EFDECDA
:1005980004F060C076F061C077F089848986000E27
:1005A8000001686F180E0001686501D013D0D00EE5
:1005B8000001656FCA0EE82EFED7652FFCD7D00E56
:1005C8000001656FCA0EE82EFED7652FFCD7000123
:1005D800682BE8D7040EFDEC04F060C07CF061C025
:1005E8007DF089880001765100017A5D00017B5118
:1005F800800A0001656F00017751800A0001655982
:10060800D8A018D000017C5100017A5D00017B510F
:10061800800A0001656F00017D51800A000165595B
:10062800D8A004D0000E00017E6F1200020E000157
:100638007E6F120000017C510001765D0001775148
:10064800800A0001656F00017D51800A000165592B
:10065800D8A004D0010E00017E6F1200020E000126
:100668007E6F1200020E0001616FBC0E606F59ECC4
:1006780005F0020E0001616FC80E606F3BEC05F0DB
:100688008B8073D016EC06F00D0EFDEC04F060C004
:1006980078F061C079F0250E0001785D010E000147
:1006A8007959D8A00AD0020E0001816FFA0E806F26
:1006B800020E0001836F8F0E2CD00001795118E1D2
:1006C800FC0E0001785DD8B013D00001795105E126
:1006D8000B0E0001785DD8A00BD0020E0001836FCD
:1006E800EE0E826F020E0001816F9B0E806F12D09A
:1006F8000001795105E10B0E0001785DD8A00AD000
:10070800020E0001816FC80E806F020E0001836F18
:10071800BC0E826F82C060F083C061F059EC05F0B6
:1007280080C060F081C061F03BEC05F0000E000174
:10073800666F070E0001666501D017D0150E00011F
:10074800656FC60EE82EFED7652FFCD700D00D0EBC
:10075800FDEC04F0EE0E0001605D020E000161592F
:10076800D8B003D00001662BE4D70D0EFDEC04F0E1
:10077800EE0E0001605D020E00016159D8B0120052
:1007880081D7000E0001616F000E0001616F2A0E13
:100798000001616501D054D08B8E8B988B8A8B8633
:1007A8008B9CD00E0001606FCA0EE82EFED7602F1A
:1007B800FCD72A0E0001606F8E0EE82EFED7602F40
:1007C800FCD78B988B9A8B868B8CD00E0001606F30
:1007D800CA0EE82EFED7602FFCD72A0E0001606FE4
:1007E8008E0EE82EFED7602FFCD78B888B9A8B96BF
:1007F8008B8CD00E0001606FCA0EE82EFED7602FDA
:10080800FCD72A0E0001606F8E0EE82EFED7602FEF
:10081800FCD78B888B8A8B968B9CD00E0001606FDF
:10082800CA0EE82EFED7602FFCD72A0E0001606F93
:100838008E0EE82EFED7602FFCD70001612BA7D7BC
:100848008B9E1200000E0001616F000E0001626FA6
:100858002A0E0001626501D054D08B8E8B888B8A5A
:100868008B968B9CD00E0001606FCA0EE82EFED7C7
:10087800602FFCD72A0E0001606F8E0EE82EFED77F
:10088800602FFCD78B888B9A8B968B8CD00E0001AF
:10089800606FCA0EE82EFED7602FFCD72A0E000123
:1008A800606F8E0EE82EFED7602FFCD78B988B9A40
:1008B8008B868B8CD00E0001606FCA0EE82EFED797
:1008C800602FFCD72A0E0001606F8E0EE82EFED72F
:1008D800602FFCD78B988B8A8B868B9CD00E00015F
:1008E800606FCA0EE82EFED7602FFCD72A0E0001D3
:1008F800606F8E0EE82EFED7602FFCD70001622BAA
:10090800A7D78B9E1200E9CF27F0EACF28F0E1CFD6
:1009180029F0E2CF2AF0D9CF2BF0DACF2CF0F3CFA1
:100928002DF0F4CF2EF0F6CF2FF0F7CF30F0F8CF30
:1009380031F0F5CF32F0F0B6F0A01CD0030E216EE6
:10094800200E206E00EC06F0CD808B90000E3A6EE3
:10095800000E396E3A500EE1640E395CD8B00AD0F8
:10096800D00E246ECA0EE82EFED7242EFCD7394AA4
:100978003A2AF0D732C0F5FF31C0F8FF30C0F7FF90
:100988002FC0F6FF2EC0F4FF2DC0F3FF2CC0DAFFF6
:100998002BC0D9FF2AC0E2FF29C0E1FF28C0EAFF27
:1009A80027C0E9FF26C0FBFF25C0FAFF3D921100D2
:1009B80000EE76F00A0EEE6AE806FDE100EE33F08E
:1009C800080EEE6AE806FDE1200EF66E0C0EF76ED4
:1009D800000EF86E00EE80F010EE04F00900F5CF7E
:1009E800EEFFE550E150FAE13D903D92000155EFF0
:1009F80000F00001646F64C062F000016247624762
:100A0800C25000016219830B6219C26EC280C28291
:100A1800C2B2FED7C4500001636F626BC3500001BD
:100A280062250001606F000E000163210001616F03
:100A38001200010E0001616F606959EC05F0010EAA
:100A48000001616F60693BEC05F0D00E0001646F36
:100A5800CA0EE82EFED7642FFCD7D00E0001646FB3
:100A6800CA0EE82EFED7642FFCD78B90120060C008
:100A780062F061C063F00001D89063336233000113
:100A8800D8906333623300016251676E60C062F0D0
:100A9800030E000162170001623BF00E62176650F8
:100AA800CF0B00016211666E120060C062F061C077
:100AB80063F00001D890633362330001D890633348
:100AC800623300016251BE6E60C062F0030E000125
:100AD80062170001623BF00E6217BD50CF0B000198
:100AE8006211BD6E1200000E896E92682F0E0F0102
:100AF800386F000E8A6EFE0E936E3E0E0F01396F30
:100B0800000E616E000E8B6EF90E946EF80E0F01DA
:100B18003A6FF18E120009EC06F077EC05F0ECEC78
:100B280005F0F7EC05F0C0EC05F0B0EC05F0A0EC32
:100B380005F0DFEC05F01200000ECD6E000ECC6E55
:100B4800000ECF6E000ECE6ECECF3BF0CFCF3CF076
:100B58009E9014EC06F012003C0E666E000E646E59
:100B6800800E656E010E636E7F0E676E000E686EF6
:100B7800E70E0F01491712003C0EBD6E000EB66E4F
:100B8800800EB76E010EB96E7F0EBE6E000EBF6E80
:100B9800FC0E0F014917120092909292929492962D
:100BA8009298928A93909382938493869388938A57
:100BB800000E946E1200020E0F01576F000E0F0107
:100BC800586F000E0F01596FFC0E0F0148171200E5
:100BD800010EC26E800EC16E8E0EC06E000EC36E08
:100BE800000EC46E1200020EBA6EBB68000EBC6E18
:100BF8009E9212EC06F0120020C022F021C023F0D1
:100C080022C058FF23C059FF1200700ED36E040E85
:100C1800D26E400E9B6E1200C802BC02BA8412004B
:060C2800CD801200120055
:020000040020DA
:08000000FFFFFFFFFFFFFFFF00
:020000040030CA
:0E000000FF081F3CFFBF81FF03C003E0034069
:00000001FF
