:0400000053EF00F0CA
:100008003D82FACF12F0FBCF13F0E9CF14F0EACF1C
:1000180015F0E1CF16F0E2CF17F0D9CF18F0DACF0C
:1000280019F0F3CF1AF0F4CF1BF0F6CF1CF0F7CF8E
:100038001DF0F8CF1EF0F5CF1FF01FC0F5FF1EC052
:10004800F8FF1DC0F7FF1CC0F6FF1BC0F4FF1AC065
:10005800F3FF19C0DAFF18C0D9FF17C0E2FF16C0B6
:10006800E1FF15C0EAFF14C0E9FF13C0FBFF12C08F
:10007800FAFF3D9211003D82FACF25F0FBCF26F022
:10008800F8EF03F0E9FF05C0FBFF04C0FAFF03C067
:10009800E0FF02C0E8FF01C0D8FF3D901000B6EFB6
:1000A80004F0E3EC05F069EC05F0AAEC05F08B90A0
:1000B8008B9E010E0001616F606933EC05F0010E43
:1000C8000001616F606915EC05F0CD908988938215
:1000D800F19AF08CF086F28EF28E8B988B9A8B9632
:1000E8008B9C000E00016C6F090ED7EC04F060C009
:1000F80084F061C085F0E80E0001845D030E000104
:100108008559D8B0F1D7710E0001845D030E000146
:100118008559D8A00AD0C20E0001845D030E0001E3
:100128008559D8B002D0000E23D0AC0E0001845DF2
:10013800020E00018559D8A00AD0FD0E0001845D89
:10014800020E00018559D8B002D0020E11D0EC0E73
:100158000001845D010E00018559D8A00BD03D0E29
:100168000001845D020E00018559D8B003D0010E4C
:1001780000017F6F000E0001706F000E6F6F0001AD
:10018800705118E1330E00016F5DD8B013D0D00E56
:1001980000016B6FCA0EE82EFED76B2FFCD7010E3D
:1001A80000016F2500016F6F000E00017021000132
:1001B800706FE5D7020E0001616F020E606F33ECBD
:1001C80005F0020E0001616F020E606F15EC05F07C
:1001D8008B80020E0001616FBC0E606F33EC05F07E
:1001E800020E0001616FC80E606F15EC05F035EC6A
:1001F80002F0F7EC04F0C2EC02F000017F510001BC
:100208007E19D8B458D08B80020E0001616FBC0EE5
:10021800606F33EC05F0020E0001616FC80E606F6D
:1002280015EC05F0000E00016D6F640E00016D65A0
:1002380001D00BD0D00E00016B6FCA0EE82EFED78E
:100248006B2FFCD700016D2BF0D735EC02F0F7ECE3
:1002580004F0C2EC02F000016C2B00017F51000198
:100268007E19D8B428D08B80020E0001616FBC0EB5
:10027800606F33EC05F0020E0001616FC80E606F0D
:1002880015EC05F0000E00016E6F640E00016E653E
:1002980001D00BD0D00E00016B6FCA0EE82EFED72E
:1002A8006B2FFCD700016E2BF0D735EC02F0F7EC82
:1002B80004F000016C2B020E0001616FBC0E606F30
:1002C80033EC05F0010E0001616F2C0E606F15EC28
:1002D80005F08B80000E0001716FBE0E0001716584
:1002E80001D00DD0D00E00016B6FCA0EE82EFED7DC
:1002F8006B2FFCD7F0EC05F000017129ECD7020E4A
:100308000001616F950E606F33EC05F0020E00017D
:10031800616F9E0E606F15EC05F08B80070E000173
:10032800686FD00E676F89EC04F0F7EC04F036ECD8
:1003380003F0010E0001616F690E606F33EC05F088
:10034800010E0001616F740E606F15EC05F08B8073
:10035800050E0001686FDC0E676F89EC04F0F7EC9E
:1003680004F0020E0001616FBC0E606F33EC05F003
:10037800010E0001616F2C0E606F15EC05F08B808B
:100388000D0ED7EC04F02D0E0001605D010E00018A
:100398006159D8A0F5D7020E0001616FBC0E606FDD
:1003A80033EC05F0020E0001616FC80E606F15ECAA
:1003B80005F08B8035EC02F01AD0020E0001616F57
:1003C800BC0E606F33EC05F0020E0001616FC80EC1
:1003D800606F15EC05F08B80010E0001686F5E0EF2
:1003E800676F89EC04F035EC02F000016C0700013E
:1003F8006C510001D8A4E1D7F7EC04F097EC03F0B6
:10040800010E0001616F2C0E606F33EC05F0010ED8
:100418000001616F2C0E606F15EC05F08B80070EE4
:100428000001686FD00E676F89EC04F0F7EC04F0F8
:10043800020E0001616FBC0E606F33EC05F0010E17
:100448000001616F2C0E606F15EC05F08B800F0EAC
:100458000001686FA00E676F89EC04F0F7EC04F0F8
:1004680043D6020E0001616FBC0E606F33EC05F0DD
:10047800020E0001616FC80E606F15EC05F08B80ED
:1004880071D00D0ED7EC04F060C076F061C077F043
:10049800250E0001765D010E00017759D8A00AD01B
:1004A800020E0001816FFA0E806F020E0001836F49
:1004B8008F0E2CD00001775118E1FC0E0001765DFB
:1004C800D8B013D00001775105E10B0E0001765D1D
:1004D800D8A00BD0020E0001836FEE0E826F020EC1
:1004E8000001816F9B0E806F12D00001775105E1EA
:1004F8000B0E0001765DD8A00AD0020E0001816FB4
:10050800C80E806F020E0001836FBC0E826F82C01E
:1005180060F083C061F033EC05F080C060F081C00A
:1005280061F015EC05F0000E0001666F070E000182
:10053800666501D017D0150E0001656FC60EE82E4E
:10054800FED7652FFCD700D00D0ED7EC04F0EE0EC9
:100558000001605D020E00016159D8B003D00001AE
:10056800662BE4D70D0ED7EC04F0EE0E0001605DAB
:10057800020E00016159D8B0120083D78990898290
:10058800899889948996010E0001686FF40E676F47
:1005980089EC04F0040ED7EC04F060C07AF061C076
:1005A8007BF089948986010E0001686FF40E676FED
:1005B80089EC04F0040ED7EC04F060C074F061C05C
:1005C80075F089848986010E0001686FF40E676FE3
:1005D80089EC04F0040ED7EC04F060C07CF061C034
:1005E8007DF089880001745100017A5D00017B511A
:1005F800800A00016A6F00017551800A00016A597A
:10060800D8A018D000017C5100017A5D00017B510F
:10061800800A00016A6F00017D51800A00016A5951
:10062800D8A004D0000E00017E6F1200020E000157
:100638007E6F120000017C510001745D000175514C
:10064800800A00016A6F00017D51800A00016A5921
:10065800D8A004D0010E00017E6F1200020E000126
:100668007E6F1200000E0001616F000E0001616FC5
:100678002A0E0001616501D054D08B8E8B988B8A2D
:100688008B868B9CD00E0001606FCA0EE82EFED7B9
:10069800602FFCD72A0E0001606F8E0EE82EFED761
:1006A800602FFCD78B988B9A8B868B8CD00E000191
:1006B800606FCA0EE82EFED7602FFCD72A0E000105
:1006C800606F8E0EE82EFED7602FFCD78B888B9A32
:1006D8008B968B8CD00E0001606FCA0EE82EFED769
:1006E800602FFCD72A0E0001606F8E0EE82EFED711
:1006F800602FFCD78B888B8A8B968B9CD00E000141
:10070800606FCA0EE82EFED7602FFCD72A0E0001B4
:10071800606F8E0EE82EFED7602FFCD70001612B8C
:10072800A7D78B9E1200000E0001616F000E00011A
:10073800626F2A0E0001626501D054D08B8E8B88BF
:100748008B8A8B968B9CD00E0001606FCA0EE82EA8
:10075800FED7602FFCD72A0E0001606F8E0EE82EA0
:10076800FED7602FFCD78B888B9A8B968B8CD00EFC
:100778000001606FCA0EE82EFED7602FFCD72A0E44
:100788000001606F8E0EE82EFED7602FFCD78B9885
:100798008B9A8B868B8CD00E0001606FCA0EE82E68
:1007A800FED7602FFCD72A0E0001606F8E0EE82E50
:1007B800FED7602FFCD78B988B8A8B868B9CD00EAC
:1007C8000001606FCA0EE82EFED7602FFCD72A0EF4
:1007D8000001606F8E0EE82EFED7602FFCD7000157
:1007E800622BA7D78B9E1200E9CF27F0EACF28F01B
:1007F800E1CF29F0E2CF2AF0D9CF2BF0DACF2CF0D5
:10080800F3CF2DF0F4CF2EF0F6CF2FF0F7CF30F056
:10081800F8CF31F0F5CF32F0F0B6F0A01CD0030ECF
:10082800216E200E206EDAEC05F0CD808B90000E44
:100838003A6E000E396E3A500EE1640E395CD8B04B
:100848000AD0D00E246ECA0EE82EFED7242EFCD76E
:10085800394A3A2AF0D732C0F5FF31C0F8FF30C024
:10086800F7FF2FC0F6FF2EC0F4FF2DC0F3FF2CC0FA
:10087800DAFF2BC0D9FF2AC0E2FF29C0E1FF28C058
:10088800EAFF27C0E9FF26C0FBFF25C0FAFF3D921B
:100898001100000E0001656F000E646F00016251C7
:1008A80000016311D8B42CD0010E0001666F06D088
:1008B8000001D890623763370001662B000163AFEF
:1008C800F7D70001D89064376537000162510001FD
:1008D800605D0001635100016159D8A00AD0000190
:1008E80062510001605F000163510001615B00011A
:1008F80064810001D890633362330001662FE1D729
:1009080064C060F065C061F0120067C060F068C044
:1009180061F0000E0001636F0A0E626F4DEC04F087
:1009280060C078F061C079F0000E0001736F000EAE
:10093800726F0DD0D00E0001696FCA0EE82EFED777
:10094800692FFCD7F0EC05F00001724B732B000106
:1009580072510001785D0001735100017959D8A0E6
:100968001200E8D700EE72F00E0EEE6AE806FDE11E
:1009780000EE33F0080EEE6AE806FDE1D40EF66EDE
:100988000B0EF76E000EF86E00EE80F010EE04F01D
:100998000900F5CFEEFFE550E150FAE13D903D92B8
:1009A800000155EF00F00001646F64C062F00001BF
:1009B80062476247C25000016219830B6219C26E16
:1009C800C280C282C2B2FED7C4500001636F626B9C
:1009D800C350000162250001606F000E0001632111
:1009E8000001616F1200010E0001616F606933EC54
:1009F80005F0010E0001616F606915EC05F0D00E7D
:100A08000001646FCA0EE82EFED7642FFCD7D00E03
:100A18000001646FCA0EE82EFED7642FFCD78B90B6
:100A2800120060C062F061C063F00001D8906333C7
:100A380062330001D8906333623300016251676EFC
:100A480060C062F0030E000162170001623BF00E05
:100A580062176650CF0B00016211666E120060C00B
:100A680062F061C063F00001D89063336233000123
:100A7800D8906333623300016251BE6E60C062F089
:100A8800030E000162170001623BF00E6217BD50B1
:100A9800CF0B00016211BD6E1200000E896E9268C4
:100AA8002F0E0F01386F000E8A6EFE0E936E3E0EEB
:100AB8000F01396F000E616E000E8B6EF90E946E89
:100AC800F80E0F013A6FF18E1200E3EC05F051ECCD
:100AD80005F0C6EC05F0D1EC05F09AEC05F08AECCF
:100AE80005F07AEC05F0B9EC05F01200000ECD6EB9
:100AF800000ECC6E000ECF6E000ECE6ECECF3BF049
:100B0800CFCF3CF09E90EEEC05F012003C0E666EE6
:100B1800000E646E800E656E010E636E7F0E676E4A
:100B2800000E686EE70E0F01491712003C0EBD6EED
:100B3800000EB66E800EB76E010EB96E7F0EBE6ED9
:100B4800000EBF6EFC0E0F01491712009290929290
:100B5800929492969298928A939093829384938691
:100B68009388938A000E946E1200020E0F01576F3D
:100B7800000E0F01586F000E0F01596FFC0E0F0188
:100B880048171200010EC26E800EC16E8E0EC06E26
:100B9800000EC36E000EC46E1200020EBA6EBB6861
:100BA800000EBC6E9E92ECEC05F0120020C022F004
:100BB80021C023F022C058FF23C059FF1200700E35
:100BC800D36E040ED26E400E9B6E1200C802BC0299
:0A0BD800BA841200CD801200120052
:020000040020DA
:08000000FFFFFFFFFFFFFFFF00
:020000040030CA
:0E000000FF081F3CFFBF81FF03C003E0034069
:00000001FF
