:0400000053EF00F0CA
:100008003F82FACF12F0FBCF13F0E9CF14F0EACF1A
:1000180015F0E1CF16F0E2CF17F0D9CF18F0DACF0C
:1000280019F0F3CF1AF0F4CF1BF0F6CF1CF0F7CF8E
:100038001DF0F8CF1EF0F5CF1FF01FC0F5FF1EC052
:10004800F8FF1DC0F7FF1CC0F6FF1BC0F4FF1AC065
:10005800F3FF19C0DAFF18C0D9FF17C0E2FF16C0B6
:10006800E1FF15C0EAFF14C0E9FF13C0FBFF12C08F
:10007800FAFF3F9211003F82FACF61F0FBCF62F0A6
:100088007EEF04F0E9FF05C0FBFF04C0FAFF03C0E0
:10009800E0FF02C0E8FF01C0D8FF3F901000D4EF96
:1000A80004F001EC06F087EC05F0C8EC05F08B9045
:1000B8008B9E010E0001706F6F6951EC05F0010E07
:1000C8000001706F6F6933EC05F0CD9089889382D9
:1000D800F19AF08CF086F28EF28E8B988B9A8B9632
:1000E8008B9C000E0001796F090EF5EC04F06FC0CF
:1000F80093F070C094F0E80E0001935D030E0001C8
:100108009459D8B0F1D7710E0001935D030E000128
:100118009459D8A00AD0C20E0001935D030E0001C5
:100128009459D8B002D0000E23D0AC0E0001935DD4
:10013800020E00019459D8A00AD0FD0E0001935D6B
:10014800020E00019459D8B002D0020E11D0EC0E64
:100158000001935D010E00019459D8A00BD03D0E0B
:100168000001935D020E00019459D8B003D0010E2E
:1001780000018E6F000E00017E6F000E7D6F000182
:100188007E5118E1330E00017D5DD8B013D0D00E3A
:100198000001786FCA0EE82EFED7782FFCD7010E23
:1001A80000017D2500017D6F000E00017E21000108
:1001B8007E6FE5D7020E0001706F020E6F6F51EC73
:1001C80005F0020E0001706F020E6F6F33EC05F040
:1001D8008B80020E0001706FBC0E6F6F51EC05F042
:1001E800020E0001706FC80E6F6F33EC05F036EC2D
:1001F80003F015EC05F086EC02F000018E510001C9
:100208008D19D8B458D08B80020E0001706FBC0EC7
:100218006F6F51EC05F0020E0001706FC80E6F6F22
:1002280033EC05F0000E00017A6F640E00017A6568
:1002380001D00BD0D00E0001786FCA0EE82EFED781
:10024800782FFCD700017A2BF0D736EC03F015ECA9
:1002580005F086EC02F00001792B00018E510001B7
:100268008D19D8B428D08B80020E0001706FBC0E97
:100278006F6F51EC05F0020E0001706FC80E6F6FC2
:1002880033EC05F0000E00017B6F640E00017B6506
:1002980001D00BD0D00E0001786FCA0EE82EFED721
:1002A800782FFCD700017B2BF0D736EC03F015EC48
:1002B80005F00001792B020E0001706FBC0E6F6F04
:1002C80051EC05F0010E0001706F2C0E6F6F33ECCE
:1002D80005F08B80000E0001816FBE0E0001816564
:1002E80001D00DD0D00E0001786FCA0EE82EFED7CF
:1002F800782FFCD70EEC06F000018129ECD7020E0E
:100308000001706F950E6F6F51EC05F0020E000141
:10031800706F9E0E6F6F33EC05F08B80000E00013E
:10032800826FC80E0001826501D00DD0D00E000189
:10033800786FCA0EE82EFED7782FFCD70EEC06F0A1
:1003480000018229ECD715EC05F023EC04F0010E2E
:100358000001706F690E6F6F51EC05F0010E00011E
:10036800706F740E6F6F33EC05F08B80000E000118
:10037800836F960E0001836501D00DD0D00E000169
:10038800786FCA0EE82EFED7782FFCD70EEC06F051
:1003980000018329ECD715EC05F0020E0001706FFF
:1003A800BC0E6F6F51EC05F0010E0001706F2C0E42
:1003B8006F6F33EC05F08B800D0EF5EC04F02D0E0D
:1003C80000016F5D010E00017059D8A0F5D7020E2B
:1003D8000001706FBC0E6F6F51EC05F0020E00014A
:1003E800706FC80E6F6F33EC05F08B8036EC03F03E
:1003F80026D0020E0001706FBC0E6F6F51EC05F035
:10040800020E0001706FC80E6F6F33EC05F08B8021
:10041800000E00017C6F230E00017C6501D00BD01B
:10042800D00E0001786FCA0EE82EFED7782FFCD7C1
:1004380000017C2BF0D736EC03F0000179070001AE
:1004480079510001D8A4D5D715EC05F0C5EC03F017
:10045800010E0001706F2C0E6F6F51EC05F0010E4C
:100468000001706F2C0E6F6F33EC05F08B80000E5F
:100478000001846FC80E0001846501D00DD0D00E34
:100488000001786FCA0EE82EFED7782FFCD70EEC45
:1004980006F000018429ECD715EC05F0020E0001E6
:1004A800706FBC0E6F6F51EC05F0010E0001706F9C
:1004B8002C0E6F6F33EC05F08B80000E0001806FFF
:1004C800000E7F6F910E00017F5D010E00018059C3
:1004D800D8B015D0D00E0001786FCA0EE82EFED71E
:1004E800782FFCD70EEC06F0010E00017F250001E5
:1004F8007F6F000E000180210001806FE3D715ECAB
:1005080005F0F2D589908982899889948996000E98
:100518000001756F180E0001756501D013D0D00E5B
:100528000001746FCA0EE82EFED7742FFCD7D00EC8
:100538000001746FCA0EE82EFED7742FFCD7000195
:10054800752BE8D7040EF5EC04F06FC089F070C085
:100558008AF089948986000E0001766F180E0001D2
:10056800766501D013D0D00E0001746FCA0EE82E44
:10057800FED7742FFCD7D00E0001746FCA0EE82E78
:10058800FED7742FFCD70001762BE8D7040EF5ECC4
:1005980004F06FC085F070C086F089848986000EEB
:1005A8000001776F180E0001776501D013D0D00EC7
:1005B8000001746FCA0EE82EFED7742FFCD7D00E38
:1005C8000001746FCA0EE82EFED7742FFCD7000105
:1005D800772BE8D7040EF5EC04F06FC08BF070C0F1
:1005E8008CF08988000185510001895D00018A51DC
:1005F800800A0001746F00018651800A0001745955
:10060800D8A018D000018B510001895D00018A51E2
:10061800800A0001746F00018C51800A000174592E
:10062800D8A004D0000E00018D6F1200020E000148
:100638008D6F120000018B510001855D000186510C
:10064800800A0001746F00018C51800A00017459FE
:10065800D8A004D0010E00018D6F1200020E000117
:100668008D6F1200020E0001706FBC0E6F6F51EC9F
:1006780005F0020E0001706FC80E6F6F33EC05F0C5
:100688008B8073D00EEC06F00D0EF5EC04F06FC005
:1006980087F070C088F0250E0001875D010E00010B
:1006A8008859D8A00AD0020E0001906FFA0E8F6FF9
:1006B800020E0001926F8F0E2CD00001885118E1B4
:1006C800FC0E0001875DD8B013D00001885105E108
:1006D8000B0E0001875DD8A00BD0020E0001926FAF
:1006E800EE0E916F020E0001906F9B0E8F6F12D06D
:1006F8000001885105E10B0E0001875DD8A00AD0E2
:10070800020E0001906FC80E8F6F020E0001926FEB
:10071800BC0E916F91C06FF092C070F051EC05F073
:100728008FC06FF090C070F033EC05F0000E000140
:10073800756F070E0001756501D017D0150E000101
:10074800746FC60EE82EFED7742FFCD700D00D0E9E
:10075800F5EC04F0EE0E00016F5D020E0001705919
:10076800D8B003D00001752BE4D70D0EF5EC04F0DA
:10077800EE0E00016F5D020E00017059D8B0120034
:1007880081D7000E0001706F2A0E0001706501D03C
:1007980054D08B8E8B888B8A8B968B9CD00E0001C5
:1007A8006F6FCA0EE82EFED76F2FFCD72A0E0001F6
:1007B8006F6F8E0EE82EFED76F2FFCD78B888B9A23
:1007C8008B968B8CD00E00016F6FCA0EE82EFED769
:1007D8006F2FFCD72A0E00016F6F8E0EE82EFED702
:1007E8006F2FFCD78B988B9A8B868B8CD00E000141
:1007F8006F6FCA0EE82EFED76F2FFCD72A0E0001A6
:100808006F6F8E0EE82EFED76F2FFCD78B988B8AD2
:100818008B868B9CD00E00016F6FCA0EE82EFED718
:100828006F2FFCD72A0E00016F6F8E0EE82EFED7B1
:100838006F2FFCD70001702BA7D78B9E1200000EDC
:100848003B6E2A0E3B6401D053D08B8E8B988B8ADB
:100858008B868B9CD00E00016F6FCA0EE82EFED7D8
:100868006F2FFCD72A0E00016F6F8E0EE82EFED771
:100878006F2FFCD78B988B9A8B868B8CD00E0001B0
:100888006F6FCA0EE82EFED76F2FFCD72A0E000115
:100898006F6F8E0EE82EFED76F2FFCD78B888B9A42
:1008A8008B968B8CD00E00016F6FCA0EE82EFED788
:1008B8006F2FFCD72A0E00016F6F8E0EE82EFED721
:1008C8006F2FFCD78B888B8A8B968B9CD00E000160
:1008D8006F6FCA0EE82EFED76F2FFCD72A0E0001C5
:1008E8006F6F8E0EE82EFED76F2FFCD73B2AA9D745
:1008F8008B9E1200E9CF63F0EACF64F0E1CF65F098
:10090800E2CF66F0D9CF67F0DACF68F0F3CF69F0BD
:10091800F4CF6AF0F6CF6BF0F7CF6CF0F8CF6DF04C
:10092800F5CF6EF0F0B6F0A01DD0030E216E200EAC
:10093800206EF8EC05F0CD808B90000E376E000E1F
:10094800366E37500FE1640E365CD8B00BD0D00E3F
:100958000001606FCA0EE82EFED7602FFCD7364A1A
:10096800372AEFD76EC0F5FF6DC0F8FF6CC0F7FFF0
:100978006BC0F6FF6AC0F4FF69C0F3FF68C0DAFF16
:1009880067C0D9FF66C0E2FF65C0E1FF64C0EAFF47
:1009980063C0E9FF62C0FBFF61C0FAFF3F9211002C
:1009A80000EE85F00A0EEE6AE806FDE100EE24F09E
:1009B800190EEE6AE806FDE1100EF66E0C0EF76EE3
:1009C800000EF86E00EE8FF010EE04F00900F5CF7F
:1009D800EEFFE550E150FAE13F903F92000155EFFC
:1009E80000F00001736F73C071F000017147714727
:1009F800C25000017119830B7119C26EC280C28284
:100A0800C2B2FED7C4500001726F716BC3500001AF
:100A1800712500016F6F000E000172210001706FD7
:100A28001200010E0001706F6F6951EC05F0010EA4
:100A38000001706F6F6933EC05F0D00E0001736F21
:100A4800CA0EE82EFED7732FFCD7D00E0001736FA5
:100A5800CA0EE82EFED7732FFCD78B9012006FC0FA
:100A680071F070C072F00001D890723371330001D8
:100A7800D8907233713300017151676E6FC071F095
:100A8800030E000171170001713BF00E71176650DB
:100A9800CF0B00017111666E12006FC071F070C04B
:100AA80072F00001D890723371330001D89072331C
:100AB800713300017151BE6E6FC071F0030E0001F9
:100AC80071170001713BF00E7117BD50CF0B00017B
:100AD8007111BD6E1200000E896E92682F0E0F0103
:100AE800386F000E8A6EFE0E936E3E0E0F01396F40
:100AF800000E616E000E8B6EF90E946EF80E0F01EB
:100B08003A6FF18E120001EC06F06FEC05F0E4ECA0
:100B180005F0EFEC05F0B8EC05F0A8EC05F098EC62
:100B280005F0D7EC05F01200000ECD6E000ECC6E6D
:100B3800000ECF6E000ECE6ECECF3DF0CFCF3EF082
:100B48009E900CEC06F012003C0E666E000E646E71
:100B5800800E656E010E636E7F0E676E000E686E06
:100B6800E70E0F01491712003C0EBD6E000EB66E5F
:100B7800800EB76E010EB96E7F0EBE6E000EBF6E90
:100B8800FC0E0F014917120092909292929492963D
:100B98009298928A93909382938493869388938A67
:100BA800000E946E1200020E0F01576F000E0F0117
:100BB800586F000E0F01596FFC0E0F0148171200F5
:100BC800010EC26E800EC16E8E0EC06E000EC36E18
:100BD800000EC46E1200020EBA6EBB68000EBC6E28
:100BE8009E920AEC06F0120020C022F021C023F0E9
:100BF80022C058FF23C059FF1200700ED36E040E96
:100C0800D26E400E9B6E1200C802BC02BA8412005B
:060C1800CD801200120065
:020000040020DA
:08000000FFFFFFFFFFFFFFFF00
:020000040030CA
:0E000000FF081F3CFFBF81FF03C003E0034069
:00000001FF
