:0400000053EF00F0CA
:0E0008004082FACF01F0FBCF02F018EF04F0B7
:100018004080D8CF0FF0E8CF10F0E0CF11F0FACF42
:1000280012F0FBCF13F0E9CF14F0EACF15F0E1CFCF
:1000380016F0E2CF17F0D9CF18F0DACF19F0F3CFD6
:100048001AF0F4CF1BF0F6CF1CF0F7CF1DF0F8CF65
:100058001EF0F5CF1FF01FC0F5FF1EC0F8FF1DC032
:10006800F7FF1CC0F6FF1BC0F4FF1AC0F3FF19C04E
:10007800DAFF18C0D9FF17C0E2FF16C0E1FF15C0AC
:10008800EAFF14C0E9FF13C0FBFF12C0FAFF11C05A
:10009800E0FF10C0E8FF0FC0D8FF4090100000EF4D
:1000A80005F051EC05F092EC05F08B908B9E010E5B
:1000B800216E2068C4EC04F0010E216E2068A6ECC5
:1000C80004F0CD9089889382F19AF08CF086F29EA4
:1000D8008B988B9A8B968B9C000E0001716F090E82
:1000E800E2EC04F020C038F021C039F081B216D01B
:1000F80038C060F039C061F0020E0001636F140E61
:10010800626F000E0001656F280E646F4EEC04F0FC
:100118000009D8B403D0CEEC02F0E1D7E80E385C81
:10012800030E3958D8B0DBD738C060F039C061F059
:10013800030E0001636F990E626F000E0001656F78
:10014800280E646F4EEC04F00009D8B402D0000EFB
:1001580029D038C060F039C061F0020E0001636F29
:10016800D40E626F000E0001656F280E646F4EECAE
:1001780004F00009D8B402D0020E14D038C060F0E0
:1001880039C061F0020E0001636F140E626F000E39
:100198000001656F280E646F4EEC04F00009D8B4B6
:1001A80002D0010E376E010E00016B6FF40E6A6FFC
:1001B8007FEC04F0020E216E020E206EC4EC04F0F7
:1001C800020E216E020E206EA6EC04F08B80020E49
:1001D800216EBC0E206EC4EC04F0020E216EC80E17
:1001E800206EA6EC04F0F1EC01F01DEC05F06AECD1
:1001F80002F037503618D8B43AD08B80020E216EF0
:10020800BC0E206EC4EC04F0020E216EC80E206EE7
:10021800A6EC04F0010E00016B6FF40E6A6F7FEC20
:1002280004F0F1EC01F01DEC05F06AEC02F00001BD
:10023800712B37503618D8B41AD08B80020E216E25
:10024800BC0E206EC4EC04F0020E216EC80E206EA7
:10025800A6EC04F0030E00016B6FE80E6A6F7FECEA
:1002680004F0F1EC01F01DEC05F00001712B020E19
:10027800216EBC0E206EC4EC04F0010E216E2C0E13
:10028800206EA6EC04F08B80070E00016B6F6C0EDD
:100298006A6F7FEC04F0020E216E950E206EC4EC9E
:1002A80004F0020E216E9E0E206EA6EC04F08B80E8
:1002B800070E00016B6FD00E6A6F7FEC04F01DEC27
:1002C80005F087EC03F0010E216E690E206EC4EC78
:1002D80004F0010E216E740E206EA6EC04F08B80E3
:1002E800050E00016B6FDC0E6A6F7FEC04F01DECED
:1002F80005F0020E216EBC0E206EC4EC04F0010E57
:10030800216E2C0E206EA6EC04F08B800D0EE2EC14
:1003180004F02D0E205C010E2158D8A0F7D7020E4C
:10032800216EBC0E206EC4EC04F0020E216EC80EC5
:10033800206EA6EC04F08B80F1EC01F018D0020ED0
:10034800216EBC0E206EC4EC04F0020E216EC80EA5
:10035800206EA6EC04F08B80010E00016B6F5E0E20
:100368006A6F7FEC04F0F1EC01F000017107000105
:1003780071510001D8A4E3D71DEC05F02EEC03F071
:10038800010E216E2C0E206EC4EC04F0010E216EBD
:100398002C0E206EA6EC04F08B80070E00016B6F0C
:1003A800D00E6A6F7FEC04F01DEC05F0020E216E92
:1003B800BC0E206EC4EC04F0010E216E2C0E206ED3
:1003C800A6EC04F08B800F0E00016B6FA00E6A6F15
:1003D8007FEC04F01DEC05F082D6020E216EBC0EF7
:1003E800206EC4EC04F0020E216EC80E206EA6EC3E
:1003F80004F08B8061D00D0EE2EC04F020C02CF0EC
:1004080021C02DF0250E2C5C010E2D58D8A008D047
:10041800020E3D6EFA0E3C6E020E3F6E8F0E22D01B
:100428002D5013E1FC0E2C5CD8B00FD02D5004E1F8
:100438000B0E2C5CD8A009D0020E3F6EEE0E3E6E5D
:10044800020E3D6E9B0E3C6E0ED02D5004E10B0E3D
:100458002C5CD8A008D0020E3D6EC80E3C6E020E71
:100468003F6EBC0E3E6E3EC020F03FC021F0C4EC93
:1004780004F03CC020F03DC021F0A6EC04F0000ED2
:100488000001646F070E0001646501D015D0150ED8
:100498000001636FC60EE82EFED7632FFCD700D08D
:1004A8000D0EE2EC04F0EE0E205C020E2158D8B0DE
:1004B80003D00001642BE6D70D0EE2EC04F0EE0E3B
:1004C800205C020E2158D8B0120095D789908982F5
:1004D800899889948996010E00016B6FF40E6A6FF2
:1004E8007FEC04F0040EE2EC04F020C032F021C0EE
:1004F80033F089948986010E00016B6FF40E6A6FE0
:100508007FEC04F0040EE2EC04F020C02AF021C0D5
:100518002BF089848986010E00016B6FF40E6A6FD7
:100528007FEC04F0040EE2EC04F020C034F021C0AB
:1005380035F089882A50325C3350800A00016D6F8B
:100548002B50800A00016D59D8A012D03450325C6B
:100558003350800A00016D6F3550800A00016D59D3
:10056800D8A003D0000E366E1200020E366E1200AE
:1005780034502A5C2B50800A00016D6F3550800A78
:1005880000016D59D8A003D0010E366E1200020E7C
:10059800366E1200899089928994030E00016B6F60
:1005A800E80E6A6F7FEC04F04ED00D0EE2EC04F01A
:1005B80020C063F021C064F0000E0001666F0A0ECF
:1005C800656FDCEC03F063C06FF064C070F016D0A8
:1005D800898012D0899006D0899435D089908992E3
:1005E80005D089808982F8D7899003D089842BD057
:1005F80089808982FBD789908992EED76FC06DF088
:1006080070C06EF000016E51000AD8B404D0020A1E
:10061800D8B413D0F0D700016D51100AD8B4D8D788
:100628000C0AD8B4D7D7340AD8B4DBD71B0AD8B445
:10063800D5D7770AD8B4D8D7DED700016D51EE0ADE
:10064800D8B4D6D7D8D781B2B0D7899089928994AF
:10065800F28E1200000E0001606F000E0001616F43
:100668002A0E0001616501D04CD08B8E8B888B8A55
:100678008B968B9CD00E206ECA0EE82EFED7202EAD
:10068800FCD72A0E206E8E0EE82EFED7202EFCD721
:100698008B888B9A8B968B8CD00E206ECA0EE82E88
:1006A800FED7202EFCD72A0E206E8E0EE82EFED7FF
:1006B800202EFCD78B988B9A8B868B8CD00E206E35
:1006C800CA0EE82EFED7202EFCD72A0E206E8E0EDC
:1006D800E82EFED7202EFCD78B988B8A8B868B9C96
:1006E800D00E206ECA0EE82EFED7202EFCD72A0E7A
:1006F800206E8E0EE82EFED7202EFCD70001612B2F
:10070800AFD78B9E1200000E216E000E216E2A0EAE
:10071800216401D04BD08B8E8B988B8A8B868B9CD7
:10072800D00E206ECA0EE82EFED7202EFCD72A0E39
:10073800206E8E0EE82EFED7202EFCD78B988B9A33
:100748008B868B8CD00E206ECA0EE82EFED7202EFC
:10075800FCD72A0E206E8E0EE82EFED7202EFCD750
:100768008B888B9A8B968B8CD00E206ECA0EE82EB7
:10077800FED7202EFCD72A0E206E8E0EE82EFED72E
:10078800202EFCD78B888B8A8B968B9CD00E206E64
:10079800CA0EE82EFED7202EFCD72A0E206E8E0E0B
:1007A800E82EFED7202EFCD7212AB1D78B9E120027
:1007B800000E0001696F000E686F000165510001AD
:1007C8006611D8B42CD0010E0001676F06D0000165
:1007D800D890653766370001672B000166AFF7D7F9
:1007E8000001D89068376937000165510001635DE1
:1007F8000001665100016459D8A00AD00001655172
:100808000001635F000166510001645B00016881BB
:100818000001D890663365330001672FE1D768C0BF
:1008280063F069C064F01200E9CF03F0EACF04F086
:10083800E1CF05F0E2CF06F0D9CF07F0DACF08F024
:10084800F3CF09F0F4CF0AF0F6CF0BF0F7CF0CF0A6
:10085800F8CF0DF0F5CF0EF00EC0F5FF0DC0F8FF84
:100868000CC0F7FF0BC0F6FF0AC0F4FF09C0F3FF86
:1008780008C0DAFF07C0D9FF06C0E2FF05C0E1FFE4
:1008880004C0EAFF03C0E9FF02C0FBFF01C0FAFF92
:1008980040921100000E0001666F64C020F065C030
:1008A80021F0201E211E204A212A00016251202603
:1008B80000016351212220500001605D2150000198
:1008C8006159D8A015D00001645100016225206E3D
:1008D8000001655100016321216E00016051205C17
:1008E800000161512158D8A003D0010E0001666FA4
:1008F8000001665112006AC063F06BC064F0000E1C
:100908000001666F0A0E656FDCEC03F063C030F01F
:1009180064C031F0000E236E000E226E0CD0D00E93
:1009280000016C6FCA0EE82EFED76C2FFCD7CFECF7
:1009380005F0224A232A2250305C23503158D8A08F
:100948001200EDD720C060F021C061F00001D890FE
:10095800613360330001D890613360330001605126
:10096800676E20C060F0030E000160170001603B55
:10097800F00E60176650CF0B00016011666E120012
:1009880020C060F021C061F00001D890613360336D
:100998000001D8906133603300016051BE6E20C001
:1009A80060F0030E000160170001603BF00E601755
:1009B800BD50CF0B00016011BD6E12000001626FC7
:1009C80062C060F0000160476047C25000016019D2
:1009D800830B6019C26EC280C282C2B2FED7C450F5
:1009E8000001616F606BC35000016025206E000E2E
:1009F80000016121216E120000EE22F0160EEE6A4F
:100A0800E806FDE1920EF66E0B0EF76E000EF86E1C
:100A180000EE3CF010EE04F00900F5CFEEFFE550D3
:100A2800E150FAE140904092000EF86E000155EF57
:100A380000F0010E216E2068C4EC04F0010E216E56
:100A48002068A6EC04F0D00E0001626FCA0EE82EF2
:100A5800FED7622FFCD7D00E0001626FCA0EE82EB7
:100A6800FED7622FFCD78B901200000E896E926819
:100A78002F0E0F01386F000E8A6EFE0E936E3E0E1B
:100A88000F01396F000E616E000E8B6EF90E946EB9
:100A9800F80E0F013A6FF18E1200C2EC05F039EC36
:100AA80005F0AEEC05F0B9EC05F082EC05F072EC5F
:100AB80005F062EC05F0A1EC05F01200000ECD6E19
:100AC800000ECC6E000ECF6E000ECE6ECECF3AF07A
:100AD800CFCF3BF09E90CDEC05F012003C0E666E39
:100AE800000E646E800E656E010E636E7F0E676E7B
:100AF800000E686EE70E0F01491712003C0EBD6E1E
:100B0800000EB66E800EB76E010EB96E7F0EBE6E09
:100B1800000EBF6EFC0E0F014917120092909292C0
:100B2800929492969298928A9390938293849386C1
:100B38009388938A000E946E1200020E0F01576F6D
:100B4800000E0F01586F000E0F01596FFC0E0F01B8
:100B580048171200010EC26E800EC16E8E0EC06E56
:100B6800000EC36E000EC46E1200020EBA6EBB6891
:100B7800000EBC6E9E92CBEC05F01200700ED36E88
:100B8800040ED26E400E9B6E1200C802BC02BA84DC
:080B98001200CD8012001200D2
:020000040020DA
:08000000FFFFFFFFFFFFFFFF00
:020000040030CA
:0E000000FF081F3CFFBF81FF03C003E0034069
:00000001FF
