:0400000053EF00F0CA
:100008003D82FACF12F0FBCF13F0E9CF14F0EACF1C
:1000180015F0E1CF16F0E2CF17F0D9CF18F0DACF0C
:1000280019F0F3CF1AF0F4CF1BF0F6CF1CF0F7CF8E
:100038001DF0F8CF1EF0F5CF1FF01FC0F5FF1EC052
:10004800F8FF1DC0F7FF1CC0F6FF1BC0F4FF1AC065
:10005800F3FF19C0DAFF18C0D9FF17C0E2FF16C0B6
:10006800E1FF15C0EAFF14C0E9FF13C0FBFF12C08F
:10007800FAFF3D9211003D82FACF25F0FBCF26F022
:100088006CEF04F0E9FF05C0FBFF04C0FAFF03C0F2
:10009800E0FF02C0E8FF01C0D8FF3D9010002AEF42
:1000A80005F059EC06F0DFEC05F020EC06F08B903B
:1000B8008B9E010E0001616F6069A9EC05F0010ECD
:1000C8000001616F60698BEC05F0CD90898893829F
:1000D800F19AF08CF086F29E8B988B9A8B968B9C7B
:1000E800000E0001746F090E4DEC05F060C08CF035
:1000F80061C08DF081B213D0EC0E00018C5D010E51
:1001080000018D59D8A00BD03D0E00018C5D020E68
:1001180000018D59D8B003D00CEC04F0E4D7E80EF8
:1001280000018C5D030E00018D59D8B0DCD7710E2B
:1001380000018C5D030E00018D59D8A00AD0C20EB3
:1001480000018C5D030E00018D59D8B002D0000E5D
:1001580023D0AC0E00018C5D020E00018D59D8A091
:100168000AD0FD0E00018C5D020E00018D59D8B039
:1001780002D0020E11D0EC0E00018C5D010E0001C0
:100188008D59D8A00BD03D0E00018C5D020E0001E8
:100198008D59D8B003D0010E0001876F000E000101
:1001A800786F000E776F0001785118E1330E000167
:1001B800775DD8B013D0D00E0001736FCA0EE82E49
:1001C800FED7732FFCD7010E000177250001776F4A
:1001D800000E000178210001786FE5D7020E0001BA
:1001E800616F020E606FA9EC05F0020E0001616FED
:1001F800020E606F8BEC05F08B80020E0001616FC0
:10020800BC0E606FA9EC05F0020E0001616FC80E0C
:10021800606F8BEC05F049EC02F06DEC05F0D6EC64
:1002280002F00001875100018619D8B458D08B809C
:10023800020E0001616FBC0E606FA9EC05F0020EA2
:100248000001616FC80E606F8BEC05F0000E0001B5
:10025800756F640E0001756501D00BD0D00E0001DA
:10026800736FCA0EE82EFED7732FFCD70001752BCB
:10027800F0D749EC02F06DEC05F0D6EC02F0000185
:10028800742B0001875100018619D8B428D08B80BF
:10029800020E0001616FBC0E606FA9EC05F0020E42
:1002A8000001616FC80E606F8BEC05F0000E000155
:1002B800766F640E0001766501D00BD0D00E000178
:1002C800736FCA0EE82EFED7732FFCD70001762B6A
:1002D800F0D749EC02F06DEC05F00001742B020E2A
:1002E8000001616FBC0E606FA9EC05F0010E000102
:1002F800616F2C0E606F8BEC05F08B80000E000197
:10030800796FBE0E0001796501D00DD0D00E0001C5
:10031800736FCA0EE82EFED7732FFCD766EC06F073
:1003280000017929ECD7020E0001616F950E606F0C
:10033800A9EC05F0020E0001616F9E0E606F8BEC58
:1003480005F08B80070E00016D6FD00E6C6FFDEC11
:1003580004F06DEC05F04AEC03F0010E0001616F4A
:10036800690E606FA9EC05F0010E0001616F740E53
:10037800606F8BEC05F08B80050E00016D6FDC0E55
:100388006C6FFDEC04F06DEC05F0020E0001616F7E
:10039800BC0E606FA9EC05F0010E0001616F2C0E18
:1003A800606F8BEC05F08B800D0E4DEC05F02D0E7B
:1003B8000001605D010E00016159D8A0F5D7020E59
:1003C8000001616FBC0E606FA9EC05F0020E000120
:1003D800616FC80E606F8BEC05F08B8049EC02F002
:1003E8001AD0020E0001616FBC0E606FA9EC05F017
:1003F800020E0001616FC80E606F8BEC05F08B80F8
:10040800010E00016D6F5E0E6C6FFDEC04F049EC9F
:1004180002F000017407000174510001D8A4E1D76B
:100428006DEC05F0ABEC03F0010E0001616F2C0ED2
:10043800606FA9EC05F0010E0001616F2C0E606F72
:100448008BEC05F08B80070E00016D6FD00E6C6F82
:10045800FDEC04F06DEC05F0020E0001616FBC0EBE
:10046800606FA9EC05F0010E0001616F2C0E606F42
:100478008BEC05F08B800F0E00016D6FA00E6C6F7A
:10048800FDEC04F06DEC05F02ED6020E0001616F54
:10049800BC0E606FA9EC05F0020E0001616FC80E7A
:1004A800606F8BEC05F08B8071D00D0E4DEC05F074
:1004B80060C07EF061C07FF0250E00017E5D010EF8
:1004C80000017F59D8A00AD0020E0001896FFA0EE8
:1004D800886F020E00018B6F8F0E2CD000017F51A8
:1004E80018E1FC0E00017E5DD8B013D000017F51E9
:1004F80005E10B0E00017E5DD8A00BD0020E0001B5
:100508008B6FEE0E8A6F020E0001896F9B0E886F4B
:1005180012D000017F5105E10B0E00017E5DD8A0CD
:100528000AD0020E0001896FC80E886F020E000102
:100538008B6FBC0E8A6F8AC060F08BC061F0A9EC2B
:1005480005F088C060F089C061F08BEC05F0000E02
:100558000001666F070E0001666501D017D0150E01
:100568000001656FC60EE82EFED7652FFCD700D0B8
:100578000D0E4DEC05F0EE0E0001605D020E00015F
:100588006159D8B003D00001662BE4D70D0E4DECAD
:1005980005F0EE0E0001605D020E00016159D8B051
:1005A800120083D789908982899889948996010E47
:1005B80000016D6FF40E6C6FFDEC04F0040E4DEC51
:1005C80005F060C082F061C083F089948986010ECD
:1005D80000016D6FF40E6C6FFDEC04F0040E4DEC31
:1005E80005F060C07CF061C07DF089848986010EC9
:1005F80000016D6FF40E6C6FFDEC04F0040E4DEC11
:1006080005F060C084F061C085F0898800017C51E4
:100618000001825D00018351800A00016F6F0001B3
:100628007D51800A00016F59D8A018D0000184516B
:100638000001825D00018351800A00016F6F000193
:100648008551800A00016F59D8A004D0000E00011E
:10065800866F1200020E0001866F1200000184519D
:1006680000017C5D00017D51800A00016F6F00016F
:100678008551800A00016F59D8A004D0010E0001ED
:10068800866F1200020E0001866F1200000E000134
:10069800616F000E0001616F2A0E0001616501D0D3
:1006A80054D08B8E8B988B8A8B868B9CD00E0001B6
:1006B800606FCA0EE82EFED7602FFCD72A0E000105
:1006C800606F8E0EE82EFED7602FFCD78B988B9A22
:1006D8008B868B8CD00E0001606FCA0EE82EFED779
:1006E800602FFCD72A0E0001606F8E0EE82EFED711
:1006F800602FFCD78B888B9A8B968B8CD00E000141
:10070800606FCA0EE82EFED7602FFCD72A0E0001B4
:10071800606F8E0EE82EFED7602FFCD78B888B8AF1
:100728008B968B9CD00E0001606FCA0EE82EFED708
:10073800602FFCD72A0E0001606F8E0EE82EFED7C0
:10074800602FFCD70001612BA7D78B9E1200000EEB
:100758000001616F000E0001626F2A0E00016265E0
:1007680001D054D08B8E8B888B8A8B968B9CD00E25
:100778000001606FCA0EE82EFED7602FFCD72A0E44
:100788000001606F8E0EE82EFED7602FFCD78B8895
:100798008B9A8B968B8CD00E0001606FCA0EE82E58
:1007A800FED7602FFCD72A0E0001606F8E0EE82E50
:1007B800FED7602FFCD78B988B9A8B868B8CD00EAC
:1007C8000001606FCA0EE82EFED7602FFCD72A0EF4
:1007D8000001606F8E0EE82EFED7602FFCD78B9835
:1007E8008B8A8B868B9CD00E0001606FCA0EE82E18
:1007F800FED7602FFCD72A0E0001606F8E0EE82E00
:10080800FED7602FFCD70001622BA7D78B9E120062
:10081800899089928994030E00016D6FE80E6C6FC0
:10082800FDEC04F04ED00D0E4DEC05F060C065F007
:1008380061C066F0000E0001686F0A0E676FC1ECB8
:1008480004F065C071F066C072F016D0898012D0CD
:10085800899006D0899435D08990899205D089806D
:100868008982F8D7899003D089842BD0898089829E
:10087800FBD789908992EED771C06FF072C070F083
:1008880000017051000AD8B404D0020AD8B413D0B9
:10089800F0D700016F51100AD8B4D8D70C0AD8B4D1
:1008A800D7D7340AD8B4DBD71B0AD8B4D5D7770A38
:1008B800D8B4D8D7DED700016F51EE0AD8B4D6D74E
:1008C800D8D781B2B0D7899089928994F28E1200D4
:1008D800E9CF27F0EACF28F0E1CF29F0E2CF2AF0DC
:1008E800D9CF2BF0DACF2CF0F3CF2DF0F4CF2EF0B8
:1008F800F6CF2FF0F7CF30F0F8CF31F0F5CF32F058
:10090800F0B6F0A01CD0030E216E200E206E50EC25
:1009180006F0CD808B90000E3A6E000E396E3A507C
:100928000EE1640E395CD8B00AD0D00E246ECA0E1F
:10093800E82EFED7242EFCD7394A3A2AF0D732C0FF
:10094800F5FF31C0F8FF30C0F7FF2FC0F6FF2EC00B
:10095800F4FF2DC0F3FF2CC0DAFF2BC0D9FF2AC04B
:10096800E2FF29C0E1FF28C0EAFF27C0E9FF26C04F
:10097800FBFF25C0FAFF3D921100000E00016A6FCF
:10098800000E696F0001675100016811D8B42CD0BE
:10099800010E00016B6F06D00001D89067376837E9
:1009A80000016B2B000168AFF7D70001D8906937B9
:1009B8006A37000167510001655D00016851000157
:1009C8006659D8A00AD0000167510001655F00018F
:1009D80068510001665B000169810001D8906833A5
:1009E800673300016B2FE1D769C065F06AC066F014
:1009F80012006CC065F06DC066F0000E0001686FF3
:100A08000A0E676FC1EC04F065C080F066C081F023
:100A1800000E00017B6F000E7A6F0DD0D00E000122
:100A28006E6FCA0EE82EFED76E2FFCD766EC06F066
:100A380000017A4B7B2B00017A510001805D000197
:100A48007B5100018159D8A01200E8D700EE7AF056
:100A58000E0EEE6AE806FDE100EE33F0080EEE6ACF
:100A6800E806FDE1C00EF66E0C0EF76E000EF86E8D
:100A780000EE88F010EE04F00900F5CFEEFFE55027
:100A8800E150FAE13D903D92000EF86E000155EFFD
:100A980000F00001646F64C062F0000162476247C1
:100AA800C25000016219830B6219C26EC280C282F1
:100AB800C2B2FED7C4500001636F626BC35000011D
:100AC80062250001606F000E000163210001616F63
:100AD8001200010E0001616F6069A9EC05F0010EBA
:100AE8000001616F60698BEC05F0D00E0001646F46
:100AF800CA0EE82EFED7642FFCD7D00E0001646F13
:100B0800CA0EE82EFED7642FFCD78B90120060C067
:100B180062F061C063F00001D89063336233000172
:100B2800D8906333623300016251676E60C062F02F
:100B3800030E000162170001623BF00E6217665057
:100B4800CF0B00016211666E120060C062F061C0D6
:100B580063F00001D890633362330001D8906333A7
:100B6800623300016251BE6E60C062F0030E000184
:100B780062170001623BF00E6217BD50CF0B0001F7
:100B88006211BD6E1200000E896E92682F0E0F0161
:100B9800386F000E8A6EFE0E936E3E0E0F01396F8F
:100BA800000E616E000E8B6EF90E946EF80E0F013A
:100BB8003A6FF18E120059EC06F0C7EC05F03CECE8
:100BC80006F047EC06F010EC06F000EC06F0F0EC4E
:100BD80005F02FEC06F01200000ECD6E000ECC6E64
:100BE800000ECF6E000ECE6ECECF3BF0CFCF3CF0D6
:100BF8009E9064EC06F012003C0E666E000E646E69
:100C0800800E656E010E636E7F0E676E000E686E55
:100C1800E70E0F01491712003C0EBD6E000EB66EAE
:100C2800800EB76E010EB96E7F0EBE6E000EBF6EDF
:100C3800FC0E0F014917120092909292929492968C
:100C48009298928A93909382938493869388938AB6
:100C5800000E946E1200020E0F01576F000E0F0166
:100C6800586F000E0F01596FFC0E0F014817120044
:100C7800010EC26E800EC16E8E0EC06E000EC36E67
:100C8800000EC46E1200020EBA6EBB68000EBC6E77
:100C98009E9262EC06F0120020C022F021C023F0E0
:100CA80022C058FF23C059FF1200700ED36E040EE5
:100CB800D26E400E9B6E1200C802BC02BA841200AB
:060CC800CD8012001200B5
:020000040020DA
:08000000FFFFFFFFFFFFFFFF00
:020000040030CA
:0E000000FF081F3CFFBF81FF03C003E0034069
:00000001FF
