:0400000053EF00F0CA
:0600080040828AEF08F0BF
:100018004080D8CF0FF0E8CF10F0E0CF11F0FACF42
:1000280012F0FBCF13F0E9CF14F0EACF15F0E1CFCF
:1000380016F0E2CF17F0D9CF18F0DACF19F0F3CFD6
:100048001AF0F4CF1BF0F6CF1CF0F7CF1DF0F8CF65
:100058001EF0F5CF1FF01FC0F5FF1EC0F8FF1DC032
:10006800F7FF1CC0F6FF1BC0F4FF1AC0F3FF19C04E
:10007800DAFF18C0D9FF17C0E2FF16C0E1FF15C0AC
:10008800EAFF14C0E9FF13C0FBFF12C0FAFF11C05A
:10009800E0FF10C0E8FF0FC0D8FF4090100040EF0D
:1000A80009F013EC0AF054EC0AF08B908B9E010EC9
:1000B80000016C6F6B69A0EC09F0010E00016C6F18
:1000C8006B6982EC09F0CD9089889382F19AF08C63
:1000D800F086F29E8B988B9A8B968B9C000E000173
:1000E800906F8CEC05F0090ED6EC09F020C091F069
:1000F80021C092F081B214D091C020F092C021F0BA
:10010800020E236E140E226E000E256E280E246E2B
:10011800C4EC08F00009D8B403D044EC07F0E3D7E6
:10012800E80E0001915D030E00019259D8B0DBD7AB
:1001380091C020F092C021F0030E236E990E226E1A
:10014800000E256E280E246EC4EC08F00009D8B401
:1001580002D0000E25D091C020F092C021F0020EEE
:10016800236ED40E226E000E256E280E246EC4EC6B
:1001780008F00009D8B402D0020E12D091C020F0C5
:1001880092C021F0020E236E140E226E000E256E10
:10019800280E246EC4EC08F00009D8B403D0010E70
:1001A8000001936F010E0001686FF40E676FF4ECA5
:1001B80008F0020E00016C6F020E6B6FA0EC09F0E4
:1001C800020E00016C6F020E6B6F82EC09F08B80DF
:1001D800020E00016C6FBC0E6B6FA0EC09F0020EF2
:1001E80000016C6FC80E6B6F82EC09F0020E000103
:1001F800856FBC0E846F59EC03F062EC09F015ECC6
:1002080006F00001935100019419D8B44AD08B80AC
:10021800020E00016C6FBC0E6B6FA0EC09F0020EB1
:1002280000016C6FC80E6B6F82EC09F0010E0001C3
:10023800686FF40E676FF4EC08F0020E0001856F2A
:10024800BC0E846F59EC03F062EC09F015EC06F073
:100258000001902B0001935100019419D8B421D0CA
:100268008B80020E00016C6FBC0E6B6FA0EC09F066
:10027800020E00016C6FC80E6B6F82EC09F0030E62
:100288000001686FE80E676FF4EC08F0020E0001D9
:10029800856FBC0E846F59EC03F062EC09F0000125
:1002A800902B020E00016C6FBC0E6B6FA0EC09F076
:1002B800010E00016C6F2C0E6B6F82EC09F08B80C5
:1002C800070E0001686F6C0E676FF4EC08F0020E01
:1002D80000016C6F950E6B6FA0EC09F0020E000127
:1002E8006C6F9E0E6B6F82EC09F08B80070E00011D
:1002F800686FD00E676FF4EC08F062EC09F0A4ECBC
:1003080007F0010E00016C6F690E6B6FA0EC09F02D
:10031800010E00016C6F740E6B6F82EC09F08B801C
:10032800050E0001686FDC0E676FF4EC08F062ECF4
:1003380009F0020E00016C6FBC0E6B6FA0EC09F0A7
:10034800010E00016C6F2C0E6B6F82EC09F08B8034
:100358000D0ED6EC09F02D0E205C010E2158D8A008
:10036800F7D7020E00016C6FBC0E6B6FA0EC09F0A2
:10037800020E00016C6FC80E6B6F82EC09F08B8067
:10038800020E0001856FBC0E846F59EC03F01FD07C
:10039800020E00016C6FBC0E6B6FA0EC09F0020E30
:1003A80000016C6FC80E6B6F82EC09F08B80010E38
:1003B8000001686F5E0E676FF4EC08F0020E000132
:1003C800856FBC0E846F59EC03F0000190070001A3
:1003D80090510001D8A4DCD762EC09F0F9EC07F0E1
:1003E800010E00016C6F2C0E6B6FA0EC09F0010E72
:1003F80000016C6F2C0E6B6F82EC09F08B80070E7E
:100408000001686FD00E676FF4EC08F062EC09F039
:10041800020E00016C6FBC0E6B6FA0EC09F0010EB0
:1004280000016C6F2C0E6B6F82EC09F08B800F0E45
:100438000001686FA00E676FF4EC08F062EC09F039
:1004480052D674C078F00001796B7A6B000173356D
:100458000001783701E379810001785100017D6F4F
:1004680077C078F00001796B7A6B0001763500016E
:10047800783701E379810001785100017C6F000130
:100488007D510001D8B411D000017C5100017D5D7F
:10049800D8B012D000017D51000800017C25000170
:1004A800786F180E0001786507D075C072F076C0B5
:1004B80073F077C074F0120000017C510001D8B4C9
:1004C80011D000017D5100017C5DD8B012D000012F
:1004D8007C51000800017D250001786F180E00018D
:1004E800786507D072C072F073C073F074C074F08E
:1004F8001200060E00017B6F000174AF02D00001EC
:100508007B8F000177AF02D000017B8D0001738FD4
:10051800FF0E00017217FF0E00017317000E000195
:1005280074170001768FFF0E00017517FF0E00018A
:100538007617000E0001771700017C5100017D5DE0
:10054800D8B025D00001D8907537763777370001B5
:100558007C0700017D5100017C19D8B411D000013D
:100568007B077BC078F0070E00017817D8B408D055
:10057800E9D70001D89074337333723300017D2BAF
:1005880000017C5100017D19D8B42BD0F2D70001AD
:100598007D5100017C5DD8B024D00001D89072371D
:1005A8007337743700017D0700017D5100017C1904
:1005B800D8B411D000017B077BC078F0070E00018A
:1005C8007817D8B408D0E9D70001D89077337633B4
:1005D800753300017C2B00017C5100017D19D8A4E2
:1005E800F3D700017BAF12D0FF0E0001721BFF0E84
:1005F8000001731BFF0E0001741B010E000172271E
:10060800000E00017323000E0001742300017BAD6E
:1006180012D0FF0E0001751BFF0E0001761BFF0EA6
:100628000001771B010E00017527000E00017623DB
:10063800000E00017723000E00017B6F000172514C
:1006480000017527000173510001762300017451E0
:1006580000017723000177AF15D0FF0E0001751B4D
:10066800FF0E0001761BFF0E0001771B010E000133
:100678007527000E00017623000E00017723010E76
:1006880000017B6F75C020F076C021F077C022F0A2
:100698007DC023F07BC024F0E1EC06F020C072F0AE
:1006A80021C073F022C074F0120084C06BF085C0C2
:1006B8006CF0A0EC09F084C06BF085C06CF082ECA3
:1006C80009F08B80000E00018D6F000E00018E6F07
:1006D800000E00018F6F000E0001876F000E0001F1
:1006E800886F000E0001896F000E00018A6F000EEE
:1006F80000018B6F000E00018C6FB6D00D0ED6EC8A
:1007080009F020C063F021C064F001EC0AF063C076
:100718008DF064C08EF065C08FF08DC07EF08EC005
:100728007FF08FC080F09A0E0001816FCC0E00011F
:10073800826F430E0001836F1AEC09F07EC08DF0C2
:100748007FC08EF080C08FF087C072F088C073F0D1
:1007580089C074F0000E0001666F800E0001676F9B
:100768003F0E0001686F8DC063F08EC064F08FC0CB
:1007780065F046EC04F063C075F064C076F065C0BF
:1007880077F025EC02F072C087F073C088F074C06F
:1007980089F0000E0001666F800E0001676F3F0E42
:1007A8000001686F8DC063F08EC064F08FC065F083
:1007B80046EC04F063C072F064C073F065C074F076
:1007C800000E0001666F800E0001676F3F0E00018A
:1007D800686F87C063F088C064F089C065F046EC34
:1007E80004F063C075F064C076F065C077F025EC5E
:1007F80002F072C08AF073C08BF074C08CF08AC0AB
:1008080020F08BC021F08CC022F0F5EC04F0000140
:100818008451202400016B6F0001855121200001C3
:100828006C6FA0EC09F08AC020F08BC021F08CC05E
:1008380022F0F5EC04F0201E211E204A212A000196
:100848008451202400016B6F000185512120000193
:100858006C6F82EC09F0150E0001866FC60EE82E4B
:10086800FED7862FFCD700F00D0ED6EC09F020C07D
:1008780063F021C064F001EC0AF0000165BF3ED7C7
:100888008B90120065C069F000016A6B6B6B000108
:1008980064350001693701E36A810001695100018B
:1008A8006C6F00016C51D8A40AD0000E0001636F70
:1008B800000E0001646F000E0001656F120068C031
:1008C80069F000016A6B6B6B0001673500016937DD
:1008D80001E36A81000169510001716F00017151E2
:1008E800D8A40AD0000E0001636F000E0001646FE7
:1008F800000E0001656F1200000171517B0F0001AD
:100908006C2765C071F0000168510001711B800EF1
:10091800000171170001648F0001678FFF0E00014D
:100928006617FF0E00016717000E00016817000E1A
:1009380000016D6F000E00016E6F000E00016F6FF9
:10094800070E0001706F000163A10CD00001665111
:1009580000016D270001675100016E2300016851F5
:1009680000016F230001D8906533643363330001BD
:10097800D8906637673768370001702FE4D7090EBB
:100988000001706F000163A10CD0000166510001E5
:100998006D270001675100016E23000168510001B5
:1009A8006F230001D8906533643363330001D89016
:1009B8006F336E336D330001702FE4D76DC020F0B4
:1009C8006EC021F06FC022F06CC023F071C024F01B
:1009D800E1EC06F020C063F021C064F022C065F0AD
:1009E800120022C060F00001616B626B21340001CB
:1009F800603701E361810001605100016A6F000105
:100A08006A51D8A409D0000E206E000E216E000E87
:100A1800226E000E236E1200170E0001606F20C0B8
:100A280061F021C062F022C063F00001602900017A
:100A3800646F05D00001D8906333623361330001DD
:100A4800642FF8D7000161510001656F218EFF0EF8
:100A58002016FF0E2116000E221620500001666F88
:100A680021500001676F22500001686F0001696B17
:100A78008E0E00016A5F00016AAF19D000016A5149
:100A8800800A8F0FD8B009D0000E206E000E216E9C
:100A9800000E226E000E236E12000001D8906933FA
:100AA80068336733663300016A3FF7D71AD0170EE9
:100AB80000016A6511D0000E206E000E216E000E36
:100AC800226E000E236E12000001D8906637673739
:100AD8006837693700016A0700016A510001D8A424
:100AE800F3D7000165510001D8B409D00001691F8E
:100AF800681F671F666D000E67236823692366C039
:100B080020F067C021F068C022F069C023F012000D
:100B1800020E0001706FA00E00016F6F920EE82E9A
:100B2800FED76F2FFCD7702FFAD700F0000E000108
:100B3800746F000E736F8B800D0ED6EC09F020C019
:100B480071F021C072F04ED0010E00017315000142
:100B58006F6F000E000174150001706FD8900001CE
:100B68006F377037FF0E00016F250001756FFF0E9C
:100B7800000170210001766F75C020F076C021F069
:100B8800000E236EFA0E226EEEEC09F0000E202401
:100B980000016B6F020E212000016C6FA0EC09F0C0
:100BA80075C020F076C021F0000E236EFA0E226E7A
:100BB800EEEC09F0201E211E204A212A000E2024D6
:100BC80000016B6F020E212000016C6F82EC09F0AE
:100BD800030E0001686FE80E676FF4EC08F000017F
:100BE800734B742B0D0ED6EC09F020C063F021C0B6
:100BF80064F001EC0AF063C066F064C067F065C099
:100C080068F09A0E0001696FCC0E00016A6F430EFE
:100C180000016B6F7DEC06F00001D8B095D78B9082
:100C2800120089908982899889948996010E000119
:100C3800686FF40E676FF4EC08F0040ED6EC09F058
:100C480020C038F021C039F089948986010E00014E
:100C5800686FF40E676FF4EC08F0040ED6EC09F038
:100C680020C034F021C035F089848986010E000146
:100C7800686FF40E676FF4EC08F0040ED6EC09F018
:100C880020C036F021C037F089883450385C39509C
:100C9800800A0001696F3550800A00016959D8A09F
:100CA80014D03650385C3950800A0001696F3750CB
:100CB800800A00016959D8A004D0000E0001946F81
:100CC8001200020E0001946F12003650345C355049
:100CD800800A0001696F3750800A00016959D8A05D
:100CE80004D0010E0001946F1200020E0001946FEF
:100CF8001200000168AF1DD066C06CF067C06DF0CF
:100D080068C06EF000016C1F6D1F6E1F6C2B000E0B
:100D18006D236E23000E00016C250001666F000E26
:100D280000016D210001676F800E00016E21000136
:100D3800686F00016BAF1DD069C06CF06AC06DF0C0
:100D48006BC06EF000016C1F6D1F6E1F6C2B000EC8
:100D58006D236E23000E00016C250001696F000EE3
:100D680000016D2100016A6F800E00016E210001F3
:100D78006B6F000E0001661B000E0001671B800EE2
:100D88000001681B000E0001691B000E00016A1BB0
:100D9800800E00016B1B000169510001665D0001B6
:100DA8006A510001675900016B5100016859D8B0B8
:100DB80002D0D8901200D88012002350D8B405D0A1
:100DC800205021102210D8A40CD0000E206E000E46
:100DD800216E000E226E1200232AD8902232213270
:100DE8002032000E20140001606F000E2114000153
:100DF800616FFE0E22140001626F00016051000154
:100E0800611100016211D8B40CD0E6D7232A010E73
:100E18002026000E2122000E2222D89022322132D2
:100E28002032000E20140001606F000E2114000112
:100E3800616FFF0E22140001626F00016051000112
:100E4800611100016211D8B406D0E0D72306D8900A
:100E580020362136223621BE03D0020E2360F6D773
:100E680023A0219ED8902332235022122450D8A4A4
:100E7800228E20C020F021C021F022C022F01200D2
:100E8800899089928994030E0001686FE80E676F54
:100E9800F4EC08F04ED00D0ED6EC09F020C060F04E
:100EA80021C061F0000E0001636F0A0E626F4EEC04
:100EB80008F060C06BF061C06CF016D0898012D069
:100EC800899006D0899435D08990899205D08980F7
:100ED8008982F8D7899003D089842BD08980898228
:100EE800FBD789908992EED76BC069F06CC06AF025
:100EF80000016A51000AD8B404D0020AD8B413D049
:100F0800F0D700016951100AD8B4D8D70C0AD8B460
:100F1800D7D7340AD8B4DBD71B0AD8B4D5D7770AC1
:100F2800D8B4D8D7DED700016951EE0AD8B4D6D7DD
:100F3800D8D781B2B0D7899089928994F28E12005D
:100F4800000E216E000E216E2A0E216401D04BD0B6
:100F58008B8E8B988B8A8B868B9CD00E206ECA0EBC
:100F6800E82EFED7202EFCD72A0E206E8E0EE82EF5
:100F7800FED7202EFCD78B988B9A8B868B8CD00E25
:100F8800206ECA0EE82EFED7202EFCD72A0E206E21
:100F98008E0EE82EFED7202EFCD78B888B9A8B9648
:100FA8008B8CD00E206ECA0EE82EFED7202EFCD7D2
:100FB8002A0E206E8E0EE82EFED7202EFCD78B88A8
:100FC8008B8A8B968B9CD00E206ECA0EE82EFED78D
:100FD800202EFCD72A0E206E8E0EE82EFED7202E4D
:100FE800FCD7212AB1D78B9E1200000E216E000E6D
:100FF800226E2A0E226401D04BD08B8E8B888B8A6E
:101008008B968B9CD00E206ECA0EE82EFED7202E13
:10101800FCD72A0E206E8E0EE82EFED7202EFCD787
:101028008B888B9A8B968B8CD00E206ECA0EE82EEE
:10103800FED7202EFCD72A0E206E8E0EE82EFED765
:10104800202EFCD78B988B9A8B868B8CD00E206E9B
:10105800CA0EE82EFED7202EFCD72A0E206E8E0E42
:10106800E82EFED7202EFCD78B988B8A8B868B9CFC
:10107800D00E206ECA0EE82EFED7202EFCD72A0EE0
:10108800206E8E0EE82EFED7202EFCD7222AB1D74E
:101098008B9E1200000E0001666F000E656F000146
:1010A800625100016311D8B42CD0010E0001646FA5
:1010B80006D00001D890623763370001642B000125
:1010C80063AFF7D70001D8906537663700016251E2
:1010D8000001605D0001635100016159D8A00AD088
:1010E800000162510001605F000163510001615B12
:1010F800000165810001D890633362330001642FD9
:10110800E1D765C060F066C061F01200FACF01F067
:10111800FBCF02F0E9CF03F0EACF04F0E1CF05F00E
:10112800E2CF06F0D9CF07F0DACF08F0F3CF09F015
:10113800F4CF0AF0F6CF0BF0F7CF0CF0F8CF0DF0A4
:10114800F5CF0EF00EC0F5FF0DC0F8FF0CC0F7FF8D
:101158000BC0F6FF0AC0F4FF09C0F3FF08C0DAFFAE
:1011680007C0D9FF06C0E2FF05C0E1FF04C0EAFFDF
:1011780003C0E9FF02C0FBFF01C0FAFF4092110063
:10118800000E0001626F24C060F025C061F000010C
:10119800601F611F604B612B2250000160272350A4
:1011A8000001612300016051205C00016151215858
:1011B800D8A013D0245022240001606F255023208A
:1011C8000001616F20500001605D215000016159EC
:1011D800D8A003D0010E0001626F00016251120015
:1011E80067C060F068C061F0000E0001636F0A0E0E
:1011F800626F4EEC08F060C02CF061C02DF0000E5C
:101208002F6E000E2E6E0BD0D00E256ECA0EE82E55
:10121800FED7252EFCD791EC0AF02E4A2F2A2E5005
:101228002C5C2F502D58D8A01200EED70001815108
:101238000001821100018311D8B409D0000E000109
:10124800811B000E0001821B800E0001831B7EC0E3
:1012580072F07FC073F080C074F081C075F082C0F6
:1012680076F083C077F025EC02F072C07EF073C090
:101278007FF074C080F01200160EF66E150EF76E31
:10128800000EF86E00EE3AF010EE04F00900F5CF0B
:10129800EEFFE550E150FAE10001946B936B926B1D
:1012A800916B00EE26F0140EEE6AE806FDE1409020
:1012B8004092000EF86E000155EF00F0010E00019B
:1012C8006C6F6B69A0EC09F0010E00016C6F6B6923
:1012D80082EC09F0D00E00016F6FC90EE82EFED720
:1012E8006F2FFCD700D0D00E00016F6FC90EE82E0B
:1012F800FED76F2FFCD700D08B9012006BC06DF01B
:101308006CC06EF00001D8906E336D330001D89038
:101318006E336D3300016D51676E6BC06DF0030E57
:1013280000016D1700016D3BF00E6D176650CF0B75
:1013380000016D11666E12006BC06DF06CC06EF02E
:101348000001D8906E336D330001D8906E336D3341
:1013580000016D51BE6E6BC06DF0030E00016D177C
:1013680000016D3BF00E6D17BD50CF0B00016D11E4
:10137800BD6E1200000E896E92682F0E0F01386F35
:10138800000E8A6EFE0E936E3E0E0F01396F000E30
:10139800616E000E8B6EF90E946EF80E0F013A6FA7
:1013A800F18E1200246E24C022F022462246C2503A
:1013B8002218830B2218C26EC280C282C2B2FED724
:1013C800C450236E226AC3502224206E000E2320AC
:1013D800216E120020502202F3CF24F0F4CF25F022
:1013E80020502302F350252621502202F3502526AF
:1013F80024C020F025C021F0120063C020F064C092
:1014080021F0226A8E0E236E000E246EE1EC06F0A7
:1014180020C063F021C064F022C065F0120084ECA3
:101428000AF0BEEC09F070EC0AF07BEC0AF044EC30
:101438000AF034EC0AF024EC0AF063EC0AF012002B
:10144800000ECD6E000ECC6E000ECF6E000ECE6E6E
:10145800CECF3EF0CFCF3FF09E908FEC0AF0120037
:101468003C0E666E000E646E800E656E010E636E35
:101478007F0E676E000E686EE70E0F0149171200A7
:101488003C0EBD6E000EB66E800EB76E010EB96EC4
:101498007F0EBE6E000EBF6EFC0E0F0149171200C4
:1014A80092909292929492969298928A9390938222
:1014B800938493869388938A000E946E1200020E8A
:1014C8000F01576F000E0F01586F000E0F01596F73
:1014D800FC0E0F0148171200010EC26E800EC16E7D
:1014E8008E0EC06E000EC36E000EC46E1200020E89
:1014F800BA6EBB68000EBC6E9E928DEC0AF01200AC
:10150800700ED36E040ED26E400E9B6E1200BC029B
:0C151800C802BA841200CD80120012003C
:020000040020DA
:08000000FFFFFFFFFFFFFFFF00
:020000040030CA
:0E000000FF081F3CFFBF81FF03C003E0034069
:00000001FF
